:020000040800F2
:100000007836002029030008310300083303000874
:10001000350300083703000839030008000000001A
:100020000000000000000000000000003B0300088A
:100030003D030008000000003F03000841030008E2
:100040004303000843030008430300084303000878
:100050004303000843030008430300084303000868
:100060004303000843030008430300084303000858
:100070004303000843030008430300084303000848
:100080004303000843030008430300084303000838
:100090004303000843030008430300084303000828
:1000A0004303000843030008430300084303000818
:1000B0004303000843030008430300084303000808
:1000C00043030008430300084303000843030008F8
:1000D00043030008430300084303000843030008E8
:1000E00043030008430300084303000843030008D8
:1000F00043030008430300084303000843030008C8
:1001000043030008430300084303000843030008B7
:1001100043030008430300084303000843030008A7
:100120004303000843030008430300084303000897
:100130004303000800000000000000004303000823
:100140004303000843030008430300084303000877
:100150004303000843030008430300084303000867
:100160004303000843030008430300084303000857
:100170004303000843030008000000004303000895
:10018000430300084303000800F002F800F0BCF845
:100190000AA090E8000C82448344AAF10107DA45E2
:1001A00001D100F0B1F8AFF2090EBAE80F0013F078
:1001B000010F18BFFB1A43F001031847F43E00007B
:1001C000143F00000A444FF0000C10F8013B13F0FC
:1001D000070408BF10F8014B1D1108BF10F8015BA0
:1001E000641E05D010F8016B641E01F8016BF9D193
:1001F00013F0080F1EBF10F8014BAD1C0C1B09D1EA
:100200006D1E58BF01F801CBFAD505E014F8016B5B
:1002100001F8016B6D1EF9D59142D6D370470000ED
:100220000023002400250026103A28BF78C1FBD8FF
:10023000520728BF30C148BF0B6070474B1C012BD1
:1002400098BF70472DE9F003911C9B08B1F804801A
:10025000B1F802900A8831F802CC8044814402440B
:100260008444D9F80070D8F800601568DCF80040C4
:10027000C9F80060C8F80070CCF800501460D9F8D4
:100280000470D8F804605568DCF80440C9F80460CC
:10029000C8F80470CCF80450546008315B1ED5D106
:1002A000BDE8F00370474B1C012B98BF70472DE948
:1002B000F003911C9B08B1F80480B1F802900A8801
:1002C00031F802CC00EB580800EB590900EB520260
:1002D00000EB5C0CD9F80070D8F800601568DCF809
:1002E0000040C9F80060C8F80070CCF800501460F5
:1002F00008315B1EDFD1BDE8F00370471FB500F089
:10030000C1FF1FBD10B510BD00F01BFF1146FFF768
:10031000F5FF00F083FF00F039FF03B4FFF7F2FFB1
:1003200003BC00F041FF000009488047094800472E
:10033000FEE7FEE7FEE7FEE7FEE7FEE7FEE7FEE795
:10034000FEE7FEE704480549054A064B70470000F2
:10035000B9110008890100087830002078360020A3
:1003600078320020783200209FED3D0A5FEA920C3F
:1003700057D000BFD0ED000A90ED011A0B1D60EEC2
:10038000A00A083041EE010AF5EEC00AF1EE10FABB
:10039000C6BFB1EEE01A81ED001A81ED000AD0ED82
:1003A000000A90ED011A191D60EEA00A083041EE16
:1003B000010AF5EEC00AF1EE10FAC6BFB1EEE01A7E
:1003C00083ED001A83ED000AD0ED000A90ED011ACA
:1003D0000B1D60EEA00A083041EE010AF5EEC00ADE
:1003E000F1EE10FAC6BFB1EEE01A81ED001A81ED10
:1003F000000A90ED001AD0ED010A191D21EE011A34
:10040000083000EEA01AB5EEC01AF1EE10FAC6BF21
:10041000F1EEC10AC3ED000A83ED000ABCF1010C44
:10042000A8D112F0030208BF704700BFD0ED000A48
:1004300090ED011A0B4660EEA00A091D083041EE4E
:10044000010AF5EEC00AF1EE10FAC6BFB1EEE01AED
:1004500083ED001A83ED000A521EE7D170470000B9
:10046000000000002DE9F04106462DED028B8C4680
:100470000088736801EB80044508274601EB85007E
:1004800004EB85025FEA95087DD000BFD1ED003A0C
:10049000D4ED001A91ED012A94ED013A73EEA16AB0
:1004A00091ED024A91ED031AD4ED022AD4ED035ADC
:1004B00090ED008A90ED017A90ED020A90ED036ACA
:1004C00092ED005AD2ED014AD2ED027AD2ED030A42
:1004D000C1ED006A72EE036A73EEE13A74EEC71A78
:1004E000C1ED016A74EE226A74EE622A37EEC04AE8
:1004F000C1ED026A71EE256AC1ED036A72EE436ACC
:1005000031EE652A38EE051A35EE483A80ED001ACC
:1005100037EE241A80ED011A30EE271A80ED021A08
:1005200036EE201A80ED031A30EEC61A93ED000A5B
:10053000D3ED010A63EE804A26EEA05A66EE805A99
:1005400063EEA03A74EE854A75EEE33AC4ED004AD4
:1005500063EE204AC4ED013A61EE803A61EEA00AF2
:1005600023EE000A74EEE31A30EE800AC2ED001AA0
:1005700082ED010A93ED020AD3ED030A62EE803A9E
:1005800022EE203A00E024E062EEA01A22EE002AD9
:1005900073EE832A1030103172EE611AC4ED022A14
:1005A00024EE202AC4ED031A61EE001A61EE200A3F
:1005B00024EE000A103332EE611A103430EE800A55
:1005C00082ED021A82ED030A1032B8F101087FF4BD
:1005D0005DAF294602236046726800F041FB7268F5
:1005E0002946BDEC028B3846BDE8F041022300F0FD
:1005F00037BB2DE9F34F2DED048B87B00B980088A6
:10060000470801EB870000EB870606EB8705CDE97D
:100610000056DDF82C80A5F1040C0CEB8703CDE926
:1006200002014FEA5709D8F804800427CDE904975E
:10063000D1ED000A96ED000A90ED011A95ED013A10
:1006400070EE802A70EEC03AD1ED010A96ED010AF3
:10065000041F321F30EE802A70EEC01A31EE230ADA
:10066000D0ED000A32EE415A33EEC11A30EE434A61
:1006700071EEE04A95ED000A70EEA11A35EE435A8C
:1006800074EE805A72EEE04A70EEA20A71EEC01A61
:1006900031EE031A74EEC04A30EE800A062708F1E4
:1006A000080A81ED000A90ED010AD5ED010A08F172
:1006B000100B30EE020A08F1180830EE200A81ED26
:1006C000010A80ED004AC0ED015AC6ED004A86EDF0
:1006D000015A85ED001AC5ED011ADDF810900830B9
:1006E000083108350836A9F102095FEA590900F016
:1006F000078100BFD1ED000A96ED000AD0ED011A86
:10070000D5ED014A30EE802A30EEC05AD1ED010A13
:1007100096ED010A70EE802A30EEC01A31EE850A9D
:10072000D5ED000A30EE644A90ED000A31EE403A11
:1007300030EE011A73EE205A32EE403A30EE020AE1
:1007400031EE601A73EE603A30EE200A32EEE13A92
:1007500075EE611A81ED000A90ED010AD5ED010AEE
:1007600033EE643A30EE220A71EEA41A30EE200A1B
:1007700081ED010AD4ED002ADCED004A54ED010AB6
:100780001CED010A32EEA47A32EEE49A72EEE42A0B
:1007900052ED018A70EE807A30EEC02A72EEE82ABD
:1007A000D2ED000A93ED000A13ED018A30EEC05A33
:1007B00072EE886A77EEE82A35EE026A32EEC85A9F
:1007C00077EE602A72EEC04A70EEC02A70EE870A99
:1007D00072EEC22A30EE800A38EE682A84ED000AF2
:1007E00012ED010A53ED010A32EE492A30EE270AD2
:1007F00030EE200A04ED010A9AED000ADAED010A52
:1008000064EE007A25EEA07A65EE805A24EE204A46
:1008100037EE877A35EEC44A80ED007A80ED014AE2
:1008200026EEA04A66EE005A66EE200A26EE800A00
:10083000083034EE654A083130EE800A82ED004A15
:10084000083C02ED010A9BED000ADBED010ADDF830
:1008500014E023EE804A63EE205A23EE003A63EE62
:10086000A03A083A34EE254A0BEB8E0B33EE633A8E
:1008700086ED004A0AF1080A86ED013AB1EE643AC3
:10088000083663EE003A25EE203A25EE000A64EEC3
:10089000A00A33EEC33A30EEC00A8CED003A0CEDFC
:1008A000010A98ED000AD8ED010A08EB870861EE0D
:1008B000803A21EE203A21EE001A61EEA01AACF146
:1008C000080C33EE833A31EE611A85ED003A62EEA0
:1008D000801A85ED011A22EE201A62EEA00A22EE9D
:1008E000000A083531EE611A30EE800A83ED001AF5
:1008F00003ED010A083BB9F101097FF4FBAE00BF2B
:10090000D1ED000A96ED000A91ED011AD0ED015AE1
:1009100030EE802A70EEC00A96ED010A95ED015A7C
:10092000042371EE001A71EE404A35EEA00A90EDF4
:10093000001A31EEE54A70EEE50A30EE453A95EDE3
:10094000000A34EE454A30EE855A74EEC12A72EE42
:10095000413A71EE240A31EE021A72EE802A73EEE9
:10096000C03A70EEC00A31EE000A81ED000A90ED47
:10097000010A95ED011A30EE210A30EE010A81EDEF
:10098000010A9AED000A9AED011A63EE001A22EEAE
:10099000812A22EE800A23EE011A71EE821A30EECD
:1009A000410AC0ED001A80ED010A9BED000A9BEDA3
:1009B000011A63EE801A24EE012A24EE000A23EEC7
:1009C000811A71EE821A30EE410AC6ED001A86EDE8
:1009D000010A98ED010A98ED001A60EE801A25EEE2
:1009E000012A60EE810A25EE000A32EE211A30EE6D
:1009F000C00A85ED001A85ED010A0B984268DDE911
:100A0000030100F02DF90B98042304994268029821
:100A100000F026F90B98042304994268019800F02D
:100A20001FF90B98049904234268009807B0BDECA5
:100A3000048B02B0BDE8F04F00F012B92DE9F0418F
:100A40000488984617460D460646012A20D1281DDF
:100A5000F4B1A0F1080114F0010F06D091ED020AE3
:100A6000B1EE400A81ED020A08315FEA540C0FD062
:100A700091ED020AB1EE400A81ED020A91ED040AFD
:100A8000B1EE400A81ED040A1031BCF1010CEFD146
:100A9000B4F5807F1BD008DC102C13D0202C16D08E
:100AA000402C19D0802C0DD01CE0B4F5007F13D061
:100AB000B4F5806F06D0B4F5006F08D0B4F5805F50
:100AC0000AD00FE029463046FFF7CCFC0AE0294661
:100AD0003046FFF78EFD05E0214601232846726867
:100AE00000F0BEF8B8F1000F04D0B1892846B26812
:100AF000FFF7A4FB012F18BFBDE8F08100EE104AFC
:100B0000B7EE001A002CF8EE400A81EE200A08BF6A
:100B1000BDE8F081A5F1080014F0010F0ED0D0ED72
:100B2000020A60EE800AC0ED020AD0ED030AF1EE7F
:100B3000600A60EE800AC0ED030A0830610808BF51
:100B4000BDE8F081D0ED020A60EE800AC0ED020A35
:100B5000D0ED030AF1EE600A60EE800AC0ED030AF0
:100B6000D0ED040A60EE800AC0ED040AD0ED050A5B
:100B7000F1EE600A60EE800AC0ED050A1030491EF1
:100B8000E0D1BDE8F081000070B44FF0000CB0EC93
:100B9000010A4E1E6446B50831D000BFD0ED000AF0
:100BA00090ED011A0830B4EEE00AF1EE10FA3CBF05
:100BB000B0EE600A0CF10104F0EC010AB4EEC10AD7
:100BC000F1EE10FA3CBFB0EE410A0CF10204B0ECB9
:100BD000011AB4EEE00AF1EE10FA3CBFB0EE600A82
:100BE0000CF10304B4EEC10AF1EE10FA3CBFB0EE12
:100BF000410A0CF104046D1E0CF1040CCED106F078
:100C0000030C5FEA0C0617D0B6F1004F19D2002E84
:100C1000C8BF002510DD00BFD0ED000AF4EEC00A09
:100C2000F1EE10FA04DD4C19B0EE600AA4EB0C04EE
:100C3000001D6D1C761EEFD182ED000A1C6070BC99
:100C40007047F0EC010AB4EEE00AF1EE10FA3CBF96
:100C5000B0EE600AA1EB0C04BCF1010CF1D1EBE7A2
:100C60002DE9FF4F2DED108B82B09FEDFEFA0B4664
:100C70001C46DB084FF0000C0CEB030505EB0308EA
:100C800008EB030909EB030606EB030A00EBCC07AC
:100C900000EBC60697ED001AD6ED000A0AEB030B2F
:100CA00000EBC50500EBCA0A31EE200A71EE601AAE
:100CB00095ED002ADAED000A0BEB030E00EBC808F5
:100CC00032EE201A00EBCB0B32EE602AD8ED002A70
:100CD000DBED000A00EBC90900EBCE0E99ED003AFE
:100CE0009EED004A72EEA03A72EEE02A73EE040A1C
:100CF00033EE443A70EE636A70EE233A31EE600AE6
:100D000071EE200A33EEA01A73EEE00A87ED001AA6
:100D1000C6ED000A97ED011AD6ED010AD5ED013AAC
:100D200098ED014A31EE206A71EE600A9AED011ADF
:100D300099ED015A73EE814A73EEC13A9BED011AA7
:100D400034EE017A34EE411A9EED014A75EE045AF2
:100D500035EE444A36EE475A36EE076A34EEE57A07
:100D600074EEA54A76EE245A76EE644AC7ED015A2F
:100D7000C6ED014A76EE874AC8ED004A76EEC74ACC
:100D8000CBED004A75EE404A35EE000AC8ED014A47
:100D90008BED010A32EE430A32EE032A20EE0F0AEF
:100DA00062EE0F4A33EEC42AA4448C4522EE0F3A79
:100DB00033EE842A30EEC34A62EE0F3A30EE833AC5
:100DC00031EEC02A31EE800A71EE630A31EE231A49
:100DD00072EEE41A72EEA42A70EE013A30EE410A85
:100DE000C5ED003A8EED000A32EE200A8AED000AC7
:100DF00032EE600A89ED000A33EE620A85ED010ADF
:100E000033EE220A8EED010A34EE610A8AED010A00
:100E100034EE210A89ED010AFFF42EAF082B3FBF03
:100E200002B0BDEC108B04B0BDE8F08F4FF0000CA9
:100E3000CDF804C04FF0010CCDF800C0DDF804C0BF
:100E4000159DAC444FEA8C0505EB0C07CDF804C0AA
:100E500007EB0C094FEA4C0808EB0C0609EB0C0AEF
:100E600002EBCC0C02EBC80802EBC60602EBC50590
:100E700002EBC70702EBC90902EBCA0A9CED00DAD4
:100E80009CED018AD8ED00CA96ED00CAD5ED00BAF6
:100E900097ED00BAD9ED00AADAED008AD8ED017A13
:100EA00096ED01AA95ED017AD7ED016A99ED016AF7
:100EB000DAED019ADDF800C00CEB0307FD1805EB35
:100EC000030A0AEB030808EB030606EB030B00EB2F
:100ED000CC0900EBC808D9ED000A98ED000A00EB38
:100EE000C70700EBC606D7ED001A96ED001A70EEA4
:100EF000803A0BEB030E70EEC00A31EE810A00EB74
:100F0000C50500EBCB0B31EEC11AD5ED001A9BEDF8
:100F1000002A00EBCA0A00EBCE0E31EE824A71EED7
:100F2000C21A9AED002ADEED002A32EE223A32EEA3
:100F3000622A73EEC42A73EE843A30EE435A30EEDE
:100F4000030A33EE803A73EEC0DA89ED003A99ED88
:100F5000010A98ED013AD7ED013A95ED014A70EE9C
:100F600003EA30EE433A96ED010A9AED01EADEED2E
:100F7000014A33EE809A73EEC03A9BED010A74EE9B
:100F8000005A34EE404A3EEE240A7EEE644A3EEEBB
:100F9000E5EA7EEEA55A79EE40EA39EE009A32EEA5
:100FA000AE0A72EEEE2A75EE89EA35EEC99A7EEE49
:100FB000455AC9ED01EA3EEE055A2BEEADEA67EE61
:100FC00009EA2BEE899A67EE2DDA3EEE2EEA39EE2B
:100FD0006D9A88ED00EA67EEA5DA88ED019A2CEEAD
:100FE000809A6CEEA55A27EE800A39EE2D9A35EEDE
:100FF000C00A85ED009A66EE055A85ED010A2AEED3
:10100000A20A2AEE855A66EE222A30EE250A8BEDD8
:10101000000A35EE620A73EEA42A8BED010A31EE66
:10102000420A31EE021A33EEE42A62EE8F3A20EEE3
:101030000F0A21EE0F1A22EE0F2A70EEC02A30EEB0
:10104000800A71EEC10A71EE811A33EE421A33EE54
:10105000022A34EE633A34EE234A70EE043A30EE5C
:10106000444A01E0F304353F72EE834A72EEC32A2C
:1010700032EE613A32EE210A71EE601A71EE200A08
:101080002DEE232A28EE031A2DEE033A68EE233ABA
:10109000A44432EE011A28EE842A8C4587ED001A0A
:1010A00033EE631A29EE843A87ED011A29EE801A8D
:1010B00028EE800A32EE011A30EE430A26EEA42A08
:1010C0008EED001A8EED010A2BEE240A26EEA11AEF
:1010D0006BEE211A30EE010A2CEE221A86ED000A80
:1010E00031EEC20A6AEE221A86ED010A2AEE200AC1
:1010F0006CEE200A31EE000A8AED000A30EEE10AB9
:101100008AED010AFFF4D8AEDDF800C00CF1010C45
:10111000CDF800C063453FF691AEDDF854C04FF600
:10112000FF7404EACC0CCDF854C0072B3FF6A0ADF9
:1011300002B0BDEC108B04B0BDE8F08F7047704773
:101140007047754600F02CF8AE46050069465346D8
:1011500020F00700854618B020B5FFF7F3F8BDE88A
:1011600020404FF000064FF000074FF000084FF00E
:10117000000B21F00701AC46ACE8C009ACE8C0099F
:10118000ACE8C009ACE8C0098D46704710B504460C
:10119000AFF300802046BDE81040FFF7BEB8000066
:1011A000004870471430002001491820ABBEFEE70C
:1011B00026000200704700001448006840F47000E8
:1011C000124908601248006840F0010010490860A8
:1011D00000200F49083108600D4800680D4908409B
:1011E0000B4908600C48091D0860081F006820F4BE
:1011F0008020091F0860002005490C3108604FF06D
:1012000000600249803908607047000088ED00E006
:1012100000380240FFFFF6FE1030002408B51148E8
:1012200003781148027811491148FFF707FC11486B
:10123000114902680D48FFF797F8104B6A460D48B0
:1012400001680D48FFF7A0FC0C4800680C490968CC
:10125000884201D06FF005040CB100BFFEE700BF6B
:10126000FEE70000082000200420002000000020ED
:1012700090120008002000201420002010200020E0
:101280000C2000204FF00000E1EE100A7047000033
:1012900000040000A0120008A032000808070000A7
:1012A0000000803F00000000C4FE7F3F890FC93B63
:1012B00011FB7F3F900E493CE6F47F3FB6C9963C58
:1012C00043EC7F3FB00AC93C29E17F3FB949FB3C71
:1012D00098D37F3F2CC3163D8FC37F3F07E02F3D40
:1012E0000FB17F3F2FFB483D189C7F3F6814623D44
:1012F000AB847F3F742B7B3DC76A7F3F0A208A3DCA
:101300006D4E7F3F05A9963D9D2F7F3F8C30A33DBD
:10131000580E7F3F80B6AF3D9DEA7E3FC33ABC3D4D
:101320006DC47E3F36BDC83DC99B7E3FB93DD53DAE
:10133000B0707E3F2EBCE13D23437E3F7638EE3DCC
:1013400024137E3F73B2FA3DB1E07D3F0295033E28
:10135000CCAB7D3F86CF093E74747D3FB708103E0D
:10136000AC3A7D3F8340163E73FE7C3FDE761C3EEA
:10137000C9BF7C3FB6AB223EB07E7C3FFCDE283E40
:10138000283B7C3FA2102F3E31F57B3F9840353EF5
:10139000CDAC7B3FCF6E3B3EFC617B3F379B413EFC
:1013A000BE147B3FC2C5473E16C57A3F60EE4D3E38
:1013B00002737A3F0115543E841E7A3F97395A3E94
:1013C0009DC7793F135C603E4E6E793F667C663EFA
:1013D0009812793F7F9A6C3E7BB4783F51B6723E4B
:1013E000F853783FCCCF783E10F1773FE1E67E3E70
:1013F000C58B773FC07D823E1724773FCE86853EE2
:1014000007BA763F938E883E974D763F07958B3E81
:10141000C6DE753F229A8E3E976D753FDD9D913EEB
:101420000BFA743F31A0943E2284743F17A1973E7B
:10143000DD0B743F86A09A3E3F91733F789E9D3EA0
:101440004714733FE59AA03EF894723FC595A33EBA
:101450005213723F128FA63E578F713FC486A93E2A
:101460000809713FD47CAC3E6680703F3A71AF3E54
:1014700073F56F3FEF63B23E30686F3FEC54B53E9B
:101480009ED86E3F2A44B83EBE466E3FA031BB3E5A
:1014900093B26D3F4A1DBE3E1D1C6D3F1E07C13EEF
:1014A0005E836C3F15EFC33E58E86B3F29D5C63EBF
:1014B0000C4B6B3F53B9C93E7BAB6A3F8B9BCC3E19
:1014C000A7096A3FCA7BCF3E9165693F095AD23E60
:1014D0003CBF683F4136D53EA816683F6B10D83EEA
:1014E000D86B673F80E8DA3ECCBE663F79BEDD3E12
:1014F000880F663F4F92E03E0B5E653FFA63E33E26
:1015000059AA643F7533E63E73F4633FB700E93E82
:101510005A3C633FBBCBEB3E1082623F7994EE3E78
:1015200098C5613FEA5AF13EF206613F071FF43E5B
:101530002146603FCBE0F63E27835F3F2DA0F93E7A
:1015400005BE5E3F275DFC3EBEF65D3FB217FF3E27
:10155000532D5D3FE4E7003FC7615C3FB142023F6E
:101560001A945B3F3D9C033F50C45A3F84F4043FB0
:101570006AF2593F824B063F6A1E593F36A1073F28
:101580005348583F9BF5083F2670573FAD480A3FE8
:10159000E595563F6B9A0B3F93B9553FD0EA0C3F08
:1015A00031DB543FDA390E3FC3FA533F84870F3F94
:1015B0004918533FCDD3103FC633523FB01E123FA0
:1015C0003D4D513F2A68133FAF64503F39B0143F3F
:1015D0001F7A4F3FD9F6153F908D4E3F073C173F7E
:1015E000029F4D3FC07F183F79AE4C3F00C2193F6C
:1015F000F8BB4B3FC6021B3F7FC74A3F0C421C3F14
:1016000012D1493FD17F1D3FB3D8483F12BC1E3F86
:1016100065DE473FCBF61F3F2AE2463FF92F213FC9
:1016200003E4453F9967223FF5E3443FA99D233FEB
:1016300000E2433F25D2243F29DE423F0A05263FF0
:1016400070D8413F5636273FDAD0403F0566283FE5
:1016500067C73F3F1594293F1BBC3E3F82C02A3FCE
:10166000F9AE3D3F4AEB2B3F03A03C3F69142D3FB1
:101670003B8F3B3FDE3B2E3FA47C3A3FA5612F3F93
:101680004268393FBB85303F1652383F1DA8313F75
:10169000233A373FC9C8323F6C20363FBCE7333F5F
:1016A000F304353FF304353FBCE7333F6C20363F4E
:1016B000C9C8323F233A373F1DA8313F1652383F41
:1016C000BB85303F4268393FA5612F3FA47C3A3F3C
:1016D000DE3B2E3F3B8F3B3F69142D3F03A03C3F39
:1016E0004AEB2B3FF9AE3D3F82C02A3F1BBC3E3F39
:1016F0001594293F67C73F3F0566283FDAD0403F32
:101700005636273F70D8413F0A05263F29DE423F23
:1017100025D2243F00E2433FA99D233FF5E3443F08
:101720009967223F03E4453FF92F213F2AE2463FD4
:10173000CBF61F3F65DE473F12BC1E3FB3D8483F84
:10174000D17F1D3F12D1493F0C421C3F7FC74A3F0A
:10175000C6021B3FF8BB4B3F00C2193F79AE4C3F5E
:10176000C07F183F029F4D3F073C173F908D4E3F73
:10177000D9F6153F1F7A4F3F39B0143FAF64503F41
:101780002A68133F3D4D513FB01E123FC633523FB2
:10179000CDD3103F4918533F84870F3FC3FA533FBF
:1017A000DA390E3F31DB543FD0EA0C3F93B9553F55
:1017B0006B9A0B3FE595563FAD480A3F2670573F61
:1017C0009BF5083F5348583F36A1073F6A1E593FD3
:1017D000824B063F6AF2593F84F4043F50C45A3F9B
:1017E0003D9C033F1A945B3FB142023FC7615C3F9F
:1017F000E4E7003F532D5D3FB217FF3EBEF65D3F6D
:10180000275DFC3E05BE5E3F2DA0F93E27835F3F6E
:10181000CBE0F63E2146603F071FF43EF206613FF3
:10182000EA5AF13E98C5613F7994EE3E1082623FDC
:10183000BBCBEB3E5A3C633FB700E93E73F4633FDA
:101840007533E63E59AA643FFA63E33E0B5E653F9B
:101850004F92E03E880F663F79BEDD3ECCBE663FCC
:1018600080E8DA3ED86B673F6B10D83EA816683F19
:101870004136D53E3CBF683F095AD23E9165693F2B
:10188000CA7BCF3EA7096A3F8B9BCC3E7BAB6A3FAE
:1018900053B9C93E0C4B6B3F29D5C63E58E86B3F48
:1018A00015EFC33E5E836C3F1E07C13E1D1C6D3F9E
:1018B0004A1DBE3E93B26D3FA031BB3EBE466E3F59
:1018C0002A44B83E9ED86E3FEC54B53E30686F3F18
:1018D000EF63B23E73F56F3F3A71AF3E6680703F83
:1018E000D47CAC3E0809713FC486A93E578F713F36
:1018F000128FA63E5213723FC595A33EF894723FD5
:10190000E59AA03E4714733F789E9D3E3F91733FFA
:1019100086A09A3EDD0B743F17A1973E2284743F48
:1019200031A0943E0BFA743FDD9D913E976D753F5B
:10193000229A8E3EC6DE753F07958B3E974D763FC9
:10194000938E883E07BA763FCE86853E1724773F32
:10195000C07D823EC58B773FE1E67E3E10F1773F4A
:10196000CCCF783EF853783F51B6723E7BB4783F87
:101970007F9A6C3E9812793F667C663E4E6E793F48
:10198000135C603E9DC7793F97395A3E841E7A3F6B
:101990000115543E02737A3F60EE4D3E16C57A3F04
:1019A000C2C5473EBE147B3F379B413EFC617B3F37
:1019B000CF6E3B3ECDAC7B3F9840353E31F57B3F13
:1019C000A2102F3E283B7C3FFCDE283EB07E7C3FB1
:1019D000B6AB223EC9BF7C3FDE761C3E73FE7C3F29
:1019E0008340163EAC3A7D3FB708103E74747D3F8D
:1019F00086CF093ECCAB7D3F0295033EB1E07D3FF3
:101A000073B2FA3D24137E3F7638EE3D23437E3F8A
:101A10002EBCE13DB0707E3FB93DD53DC99B7E3FB8
:101A200036BDC83D6DC47E3FC33ABC3D9DEA7E3F96
:101A300080B6AF3D580E7F3F8C30A33D9D2F7F3F3A
:101A400005A9963D6D4E7F3F0A208A3DC76A7F3FBC
:101A5000742B7B3DAB847F3F6814623D189C7F3FB5
:101A60002FFB483D0FB17F3F07E02F3D8FC37F3FE6
:101A70002CC3163D98D37F3FB949FB3C29E17F3FFA
:101A8000B00AC93C43EC7F3FB6C9963CE6F47F3FC1
:101A9000900E493C11FB7F3F890FC93BC4FE7F3F3D
:101AA000000000000000803F890FC9BBC4FE7F3FDB
:101AB000900E49BC11FB7F3FB6C996BCE6F47F3F50
:101AC000B00AC9BC43EC7F3FB949FBBC29E17F3F69
:101AD0002CC316BD98D37F3F07E02FBD8FC37F3F38
:101AE0002FFB48BD0FB17F3F681462BD189C7F3F3C
:101AF000742B7BBDAB847F3F0A208ABDC76A7F3FC2
:101B000005A996BD6D4E7F3F8C30A3BD9D2F7F3FB5
:101B100080B6AFBD580E7F3FC33ABCBD9DEA7E3F45
:101B200036BDC8BD6DC47E3FB93DD5BDC99B7E3FA6
:101B30002EBCE1BDB0707E3F7638EEBD23437E3FC4
:101B400073B2FABD24137E3F029503BEB1E07D3F20
:101B500086CF09BECCAB7D3FB70810BE74747D3F05
:101B6000834016BEAC3A7D3FDE761CBE73FE7C3FE2
:101B7000B6AB22BEC9BF7C3FFCDE28BEB07E7C3F38
:101B8000A2102FBE283B7C3F984035BE31F57B3FED
:101B9000CF6E3BBECDAC7B3F379B41BEFC617B3FF4
:101BA000C2C547BEBE147B3F60EE4DBE16C57A3F30
:101BB000011554BE02737A3F97395ABE841E7A3F8C
:101BC000135C60BE9DC7793F667C66BE4E6E793FF2
:101BD0007F9A6CBE9812793F51B672BE7BB4783F43
:101BE000CCCF78BEF853783FE1E67EBE10F1773F68
:101BF000C07D82BEC58B773FCE8685BE1724773FDA
:101C0000938E88BE07BA763F07958BBE974D763F79
:101C1000229A8EBEC6DE753FDD9D91BE976D753FE3
:101C200031A094BE0BFA743F17A197BE2284743F73
:101C300086A09ABEDD0B743F789E9DBE3F91733F98
:101C4000E59AA0BE4714733FC595A3BEF894723FB2
:101C5000128FA6BE5213723FC486A9BE578F713F22
:101C6000D47CACBE0809713F3A71AFBE6680703F4C
:101C7000EF63B2BE73F56F3FEC54B5BE30686F3F93
:101C80002A44B8BE9ED86E3FA031BBBEBE466E3F52
:101C90004A1DBEBE93B26D3F1E07C1BE1D1C6D3FE7
:101CA00015EFC3BE5E836C3F29D5C6BE58E86B3FB7
:101CB00053B9C9BE0C4B6B3F8B9BCCBE7BAB6A3F11
:101CC000CA7BCFBEA7096A3F095AD2BE9165693F58
:101CD0004136D5BE3CBF683F6B10D8BEA816683FE2
:101CE00080E8DABED86B673F79BEDDBECCBE663F0A
:101CF0004F92E0BE880F663FFA63E3BE0B5E653F1E
:101D00007533E6BE59AA643FB700E9BE73F4633F7A
:101D1000BBCBEBBE5A3C633F7994EEBE1082623F70
:101D2000EA5AF1BE98C5613F071FF4BEF206613F53
:101D3000CBE0F6BE2146603F2DA0F9BE27835F3F72
:101D4000275DFCBE05BE5E3FB217FFBEBEF65D3F1F
:101D5000E4E700BF532D5D3FB14202BFC7615C3F66
:101D60003D9C03BF1A945B3F84F404BF50C45A3FA8
:101D7000824B06BF6AF2593F36A107BF6A1E593F20
:101D80009BF508BF5348583FAD480ABF2670573FE0
:101D90006B9A0BBFE595563FD0EA0CBF93B9553F00
:101DA000DA390EBF31DB543F84870FBFC3FA533F8C
:101DB000CDD310BF4918533FB01E12BFC633523F98
:101DC0002A6813BF3D4D513F39B014BFAF64503F37
:101DD000D9F615BF1F7A4F3F073C17BF908D4E3F76
:101DE000C07F18BF029F4D3F00C219BF79AE4C3F64
:101DF000C6021BBFF8BB4B3F0C421CBF7FC74A3F0C
:101E0000D17F1DBF12D1493F12BC1EBFB3D8483F7E
:101E1000CBF61FBF65DE473FF92F21BF2AE2463FC1
:101E2000996722BF03E4453FA99D23BFF5E3443FE3
:101E300025D224BF00E2433F0A0526BF29DE423FE8
:101E4000563627BF70D8413F056628BFDAD0403FDD
:101E5000159429BF67C73F3F82C02ABF1BBC3E3FC6
:101E60004AEB2BBFF9AE3D3F69142DBF03A03C3FA9
:101E7000DE3B2EBF3B8F3B3FA5612FBFA47C3A3F8B
:101E8000BB8530BF4268393F1DA831BF1652383F6D
:101E9000C9C832BF233A373FBCE733BF6C20363F57
:101EA000F30435BFF304353F6C2036BFBCE7333F46
:101EB000233A37BFC9C8323F165238BF1DA8313F39
:101EC000426839BFBB85303FA47C3ABFA5612F3F34
:101ED0003B8F3BBFDE3B2E3F03A03CBF69142D3F31
:101EE000F9AE3DBF4AEB2B3F1BBC3EBF82C02A3F31
:101EF00067C73FBF1594293FDAD040BF0566283F2A
:101F000070D841BF5636273F29DE42BF0A05263F1B
:101F100000E243BF25D2243FF5E344BFA99D233F00
:101F200003E445BF9967223F2AE246BFF92F213FCC
:101F300065DE47BFCBF61F3FB3D848BF12BC1E3F7C
:101F400012D149BFD17F1D3F7FC74ABF0C421C3F02
:101F5000F8BB4BBFC6021B3F79AE4CBF00C2193F56
:101F6000029F4DBFC07F183F908D4EBF073C173F6B
:101F70001F7A4FBFD9F6153FAF6450BF39B0143F39
:101F80003D4D51BF2A68133FC63352BFB01E123FAA
:101F9000491853BFCDD3103FC3FA53BF84870F3FB7
:101FA00031DB54BFDA390E3F93B955BFD0EA0C3F4D
:101FB000E59556BF6B9A0B3F267057BFAD480A3F59
:101FC000534858BF9BF5083F6A1E59BF36A1073FCB
:101FD0006AF259BF824B063F50C45ABF84F4043F93
:101FE0001A945BBF3D9C033FC7615CBFB142023F97
:101FF000532D5DBFE4E7003FBEF65DBFB217FF3E65
:1020000005BE5EBF275DFC3E27835FBF2DA0F93E66
:10201000214660BFCBE0F63EF20661BF071FF43EEB
:1020200098C561BFEA5AF13E108262BF7994EE3ED4
:102030005A3C63BFBBCBEB3E73F463BFB700E93ED2
:1020400059AA64BF7533E63E0B5E65BFFA63E33E93
:10205000880F66BF4F92E03ECCBE66BF79BEDD3EC4
:10206000D86B67BF80E8DA3EA81668BF6B10D83E11
:102070003CBF68BF4136D53E916569BF095AD23E23
:10208000A7096ABFCA7BCF3E7BAB6ABF8B9BCC3EA6
:102090000C4B6BBF53B9C93E58E86BBF29D5C63E40
:1020A0005E836CBF15EFC33E1D1C6DBF1E07C13E96
:1020B00093B26DBF4A1DBE3EBE466EBFA031BB3E51
:1020C0009ED86EBF2A44B83E30686FBFEC54B53E10
:1020D00073F56FBFEF63B23E668070BF3A71AF3E7B
:1020E000080971BFD47CAC3E578F71BFC486A93E2E
:1020F000521372BF128FA63EF89472BFC595A33ECD
:10210000471473BFE59AA03E3F9173BF789E9D3EF2
:10211000DD0B74BF86A09A3E228474BF17A1973E40
:102120000BFA74BF31A0943E976D75BFDD9D913E53
:10213000C6DE75BF229A8E3E974D76BF07958B3EC1
:1021400007BA76BF938E883E172477BFCE86853E2A
:10215000C58B77BFC07D823E10F177BFE1E67E3E42
:10216000F85378BFCCCF783E7BB478BF51B6723E7F
:10217000981279BF7F9A6C3E4E6E79BF667C663E40
:102180009DC779BF135C603E841E7ABF97395A3E63
:1021900002737ABF0115543E16C57ABF60EE4D3EFC
:1021A000BE147BBFC2C5473EFC617BBF379B413E2F
:1021B000CDAC7BBFCF6E3B3E31F57BBF9840353E0B
:1021C000283B7CBFA2102F3EB07E7CBFFCDE283EA9
:1021D000C9BF7CBFB6AB223E73FE7CBFDE761C3E21
:1021E000AC3A7DBF8340163E74747DBFB708103E85
:1021F000CCAB7DBF86CF093EB1E07DBF0295033EEB
:1022000024137EBF73B2FA3D23437EBF7638EE3D82
:10221000B0707EBF2EBCE13DC99B7EBFB93DD53DB0
:102220006DC47EBF36BDC83D9DEA7EBFC33ABC3D8E
:10223000580E7FBF80B6AF3D9D2F7FBF8C30A33D32
:102240006D4E7FBF05A9963DC76A7FBF0A208A3DB4
:10225000AB847FBF742B7B3D189C7FBF6814623DAD
:102260000FB17FBF2FFB483D8FC37FBF07E02F3DDE
:1022700098D37FBF2CC3163D29E17FBFB949FB3CF2
:1022800043EC7FBFB00AC93CE6F47FBFB6C9963CB9
:1022900011FB7FBF900E493CC4FE7FBF890FC93B35
:1022A000000080BF00000000C4FE7FBF890FC9BBD3
:1022B00011FB7FBF900E49BCE6F47FBFB6C996BC48
:1022C00043EC7FBFB00AC9BC29E17FBFB949FBBC61
:1022D00098D37FBF2CC316BD8FC37FBF07E02FBD30
:1022E0000FB17FBF2FFB48BD189C7FBF681462BD34
:1022F000AB847FBF742B7BBDC76A7FBF0A208ABDBA
:102300006D4E7FBF05A996BD9D2F7FBF8C30A3BDAD
:10231000580E7FBF80B6AFBD9DEA7EBFC33ABCBD3D
:102320006DC47EBF36BDC8BDC99B7EBFB93DD5BD9E
:10233000B0707EBF2EBCE1BD23437EBF7638EEBDBC
:1023400024137EBF73B2FABDB1E07DBF029503BE18
:10235000CCAB7DBF86CF09BE74747DBFB70810BEFD
:10236000AC3A7DBF834016BE73FE7CBFDE761CBEDA
:10237000C9BF7CBFB6AB22BEB07E7CBFFCDE28BE30
:10238000283B7CBFA2102FBE31F57BBF984035BEE5
:10239000CDAC7BBFCF6E3BBEFC617BBF379B41BEEC
:1023A000BE147BBFC2C547BE16C57ABF60EE4DBE28
:1023B00002737ABF011554BE841E7ABF97395ABE84
:1023C0009DC779BF135C60BE4E6E79BF667C66BEEA
:1023D000981279BF7F9A6CBE7BB478BF51B672BE3B
:1023E000F85378BFCCCF78BE10F177BFE1E67EBE60
:1023F000C58B77BFC07D82BE172477BFCE8685BED2
:1024000007BA76BF938E88BE974D76BF07958BBE71
:10241000C6DE75BF229A8EBE976D75BFDD9D91BEDB
:102420000BFA74BF31A094BE228474BF17A197BE6B
:10243000DD0B74BF86A09ABE3F9173BF789E9DBE90
:10244000471473BFE59AA0BEF89472BFC595A3BEAA
:10245000521372BF128FA6BE578F71BFC486A9BE1A
:10246000080971BFD47CACBE668070BF3A71AFBE44
:1024700073F56FBFEF63B2BE30686FBFEC54B5BE8B
:102480009ED86EBF2A44B8BEBE466EBFA031BBBE4A
:1024900093B26DBF4A1DBEBE1D1C6DBF1E07C1BEDF
:1024A0005E836CBF15EFC3BE58E86BBF29D5C6BEAF
:1024B0000C4B6BBF53B9C9BE7BAB6ABF8B9BCCBE09
:1024C000A7096ABFCA7BCFBE916569BF095AD2BE50
:1024D0003CBF68BF4136D5BEA81668BF6B10D8BEDA
:1024E000D86B67BF80E8DABECCBE66BF79BEDDBE02
:1024F000880F66BF4F92E0BE0B5E65BFFA63E3BE16
:1025000059AA64BF7533E6BE73F463BFB700E9BE72
:102510005A3C63BFBBCBEBBE108262BF7994EEBE68
:1025200098C561BFEA5AF1BEF20661BF071FF4BE4B
:10253000214660BFCBE0F6BE27835FBF2DA0F9BE6A
:1025400005BE5EBF275DFCBEBEF65DBFB217FFBE17
:10255000532D5DBFE4E700BFC7615CBFB14202BF5E
:102560001A945BBF3D9C03BF50C45ABF84F404BFA0
:102570006AF259BF824B06BF6A1E59BF36A107BF18
:10258000534858BF9BF508BF267057BFAD480ABFD8
:10259000E59556BF6B9A0BBF93B955BFD0EA0CBFF8
:1025A00031DB54BFDA390EBFC3FA53BF84870FBF84
:1025B000491853BFCDD310BFC63352BFB01E12BF90
:1025C0003D4D51BF2A6813BFAF6450BF39B014BF2F
:1025D0001F7A4FBFD9F615BF908D4EBF073C17BF6E
:1025E000029F4DBFC07F18BF79AE4CBF00C219BF5C
:1025F000F8BB4BBFC6021BBF7FC74ABF0C421CBF04
:1026000012D149BFD17F1DBFB3D848BF12BC1EBF76
:1026100065DE47BFCBF61FBF2AE246BFF92F21BFB9
:1026200003E445BF996722BFF5E344BFA99D23BFDB
:1026300000E243BF25D224BF29DE42BF0A0526BFE0
:1026400070D841BF563627BFDAD040BF056628BFD5
:1026500067C73FBF159429BF1BBC3EBF82C02ABFBE
:10266000F9AE3DBF4AEB2BBF03A03CBF69142DBFA1
:102670003B8F3BBFDE3B2EBFA47C3ABFA5612FBF83
:10268000426839BFBB8530BF165238BF1DA831BF65
:10269000233A37BFC9C832BF6C2036BFBCE733BF4F
:1026A000F30435BFF30435BFBCE733BF6C2036BF3E
:1026B000C9C832BF233A37BF1DA831BF165238BF31
:1026C000BB8530BF426839BFA5612FBFA47C3ABF2C
:1026D000DE3B2EBF3B8F3BBF69142DBF03A03CBF29
:1026E0004AEB2BBFF9AE3DBF82C02ABF1BBC3EBF29
:1026F000159429BF67C73FBF056628BFDAD040BF22
:10270000563627BF70D841BF0A0526BF29DE42BF13
:1027100025D224BF00E243BFA99D23BFF5E344BFF8
:10272000996722BF03E445BFF92F21BF2AE246BFC4
:10273000CBF61FBF65DE47BF12BC1EBFB3D848BF74
:10274000D17F1DBF12D149BF0C421CBF7FC74ABFFA
:10275000C6021BBFF8BB4BBF00C219BF79AE4CBF4E
:10276000C07F18BF029F4DBF073C17BF908D4EBF63
:10277000D9F615BF1F7A4FBF39B014BFAF6450BF31
:102780002A6813BF3D4D51BFB01E12BFC63352BFA2
:10279000CDD310BF491853BF84870FBFC3FA53BFAF
:1027A000DA390EBF31DB54BFD0EA0CBF93B955BF45
:1027B0006B9A0BBFE59556BFAD480ABF267057BF51
:1027C0009BF508BF534858BF36A107BF6A1E59BFC3
:1027D000824B06BF6AF259BF84F404BF50C45ABF8B
:1027E0003D9C03BF1A945BBFB14202BFC7615CBF8F
:1027F000E4E700BF532D5DBFB217FFBEBEF65DBF5D
:10280000275DFCBE05BE5EBF2DA0F9BE27835FBF5E
:10281000CBE0F6BE214660BF071FF4BEF20661BFE3
:10282000EA5AF1BE98C561BF7994EEBE108262BFCC
:10283000BBCBEBBE5A3C63BFB700E9BE73F463BFCA
:102840007533E6BE59AA64BFFA63E3BE0B5E65BF8B
:102850004F92E0BE880F66BF79BEDDBECCBE66BFBC
:1028600080E8DABED86B67BF6B10D8BEA81668BF09
:102870004136D5BE3CBF68BF095AD2BE916569BF1B
:10288000CA7BCFBEA7096ABF8B9BCCBE7BAB6ABF9E
:1028900053B9C9BE0C4B6BBF29D5C6BE58E86BBF38
:1028A00015EFC3BE5E836CBF1E07C1BE1D1C6DBF8E
:1028B0004A1DBEBE93B26DBFA031BBBEBE466EBF49
:1028C0002A44B8BE9ED86EBFEC54B5BE30686FBF08
:1028D000EF63B2BE73F56FBF3A71AFBE668070BF73
:1028E000D47CACBE080971BFC486A9BE578F71BF26
:1028F000128FA6BE521372BFC595A3BEF89472BFC5
:10290000E59AA0BE471473BF789E9DBE3F9173BFEA
:1029100086A09ABEDD0B74BF17A197BE228474BF38
:1029200031A094BE0BFA74BFDD9D91BE976D75BF4B
:10293000229A8EBEC6DE75BF07958BBE974D76BFB9
:10294000938E88BE07BA76BFCE8685BE172477BF22
:10295000C07D82BEC58B77BFE1E67EBE10F177BF3A
:10296000CCCF78BEF85378BF51B672BE7BB478BF77
:102970007F9A6CBE981279BF667C66BE4E6E79BF38
:10298000135C60BE9DC779BF97395ABE841E7ABF5B
:10299000011554BE02737ABF60EE4DBE16C57ABFF4
:1029A000C2C547BEBE147BBF379B41BEFC617BBF27
:1029B000CF6E3BBECDAC7BBF984035BE31F57BBF03
:1029C000A2102FBE283B7CBFFCDE28BEB07E7CBFA1
:1029D000B6AB22BEC9BF7CBFDE761CBE73FE7CBF19
:1029E000834016BEAC3A7DBFB70810BE74747DBF7D
:1029F00086CF09BECCAB7DBF029503BEB1E07DBFE3
:102A000073B2FABD24137EBF7638EEBD23437EBF7A
:102A10002EBCE1BDB0707EBFB93DD5BDC99B7EBFA8
:102A200036BDC8BD6DC47EBFC33ABCBD9DEA7EBF86
:102A300080B6AFBD580E7FBF8C30A3BD9D2F7FBF2A
:102A400005A996BD6D4E7FBF0A208ABDC76A7FBFAC
:102A5000742B7BBDAB847FBF681462BD189C7FBFA5
:102A60002FFB48BD0FB17FBF07E02FBD8FC37FBFD6
:102A70002CC316BD98D37FBFB949FBBC29E17FBFEA
:102A8000B00AC9BC43EC7FBFB6C996BCE6F47FBFB1
:102A9000900E49BC11FB7FBF890FC9BBC4FE7FBF2D
:102AA00000000080000080BF890FC93BC4FE7FBFCB
:102AB000900E493C11FB7FBFB6C9963CE6F47FBF40
:102AC000B00AC93C43EC7FBFB949FB3C29E17FBF59
:102AD0002CC3163D98D37FBF07E02F3D8FC37FBF28
:102AE0002FFB483D0FB17FBF6814623D189C7FBF2C
:102AF000742B7B3DAB847FBF0A208A3DC76A7FBFB2
:102B000005A9963D6D4E7FBF8C30A33D9D2F7FBFA5
:102B100080B6AF3D580E7FBFC33ABC3D9DEA7EBF35
:102B200036BDC83D6DC47EBFB93DD53DC99B7EBF96
:102B30002EBCE13DB0707EBF7638EE3D23437EBFB4
:102B400073B2FA3D24137EBF0295033EB1E07DBF10
:102B500086CF093ECCAB7DBFB708103E74747DBFF5
:102B60008340163EAC3A7DBFDE761C3E73FE7CBFD2
:102B7000B6AB223EC9BF7CBFFCDE283EB07E7CBF28
:102B8000A2102F3E283B7CBF9840353E31F57BBFDD
:102B9000CF6E3B3ECDAC7BBF379B413EFC617BBFE4
:102BA000C2C5473EBE147BBF60EE4D3E16C57ABF20
:102BB0000115543E02737ABF97395A3E841E7ABF7C
:102BC000135C603E9DC779BF667C663E4E6E79BFE2
:102BD0007F9A6C3E981279BF51B6723E7BB478BF33
:102BE000CCCF783EF85378BFE1E67E3E10F177BF58
:102BF000C07D823EC58B77BFCE86853E172477BFCA
:102C0000938E883E07BA76BF07958B3E974D76BF69
:102C1000229A8E3EC6DE75BFDD9D913E976D75BFD3
:102C200031A0943E0BFA74BF17A1973E228474BF63
:102C300086A09A3EDD0B74BF789E9D3E3F9173BF88
:102C4000E59AA03E471473BFC595A33EF89472BFA2
:102C5000128FA63E521372BFC486A93E578F71BF12
:102C6000D47CAC3E080971BF3A71AF3E668070BF3C
:102C7000EF63B23E73F56FBFEC54B53E30686FBF83
:102C80002A44B83E9ED86EBFA031BB3EBE466EBF42
:102C90004A1DBE3E93B26DBF1E07C13E1D1C6DBFD7
:102CA00015EFC33E5E836CBF29D5C63E58E86BBFA7
:102CB00053B9C93E0C4B6BBF8B9BCC3E7BAB6ABF01
:102CC000CA7BCF3EA7096ABF095AD23E916569BF48
:102CD0004136D53E3CBF68BF6B10D83EA81668BFD2
:102CE00080E8DA3ED86B67BF79BEDD3ECCBE66BFFA
:102CF0004F92E03E880F66BFFA63E33E0B5E65BF0E
:102D00007533E63E59AA64BFB700E93E73F463BF6A
:102D1000BBCBEB3E5A3C63BF7994EE3E108262BF60
:102D2000EA5AF13E98C561BF071FF43EF20661BF43
:102D3000CBE0F63E214660BF2DA0F93E27835FBF62
:102D4000275DFC3E05BE5EBFB217FF3EBEF65DBF0F
:102D5000E4E7003F532D5DBFB142023FC7615CBF56
:102D60003D9C033F1A945BBF84F4043F50C45ABF98
:102D7000824B063F6AF259BF36A1073F6A1E59BF10
:102D80009BF5083F534858BFAD480A3F267057BFD0
:102D90006B9A0B3FE59556BFD0EA0C3F93B955BFF0
:102DA000DA390E3F31DB54BF84870F3FC3FA53BF7C
:102DB000CDD3103F491853BFB01E123FC63352BF88
:102DC0002A68133F3D4D51BF39B0143FAF6450BF27
:102DD000D9F6153F1F7A4FBF073C173F908D4EBF66
:102DE000C07F183F029F4DBF00C2193F79AE4CBF54
:102DF000C6021B3FF8BB4BBF0C421C3F7FC74ABFFC
:102E0000D17F1D3F12D149BF12BC1E3FB3D848BF6E
:102E1000CBF61F3F65DE47BFF92F213F2AE246BFB1
:102E20009967223F03E445BFA99D233FF5E344BFD3
:102E300025D2243F00E243BF0A05263F29DE42BFD8
:102E40005636273F70D841BF0566283FDAD040BFCD
:102E50001594293F67C73FBF82C02A3F1BBC3EBFB6
:102E60004AEB2B3FF9AE3DBF69142D3F03A03CBF99
:102E7000DE3B2E3F3B8F3BBFA5612F3FA47C3ABF7B
:102E8000BB85303F426839BF1DA8313F165238BF5D
:102E9000C9C8323F233A37BFBCE7333F6C2036BF47
:102EA000F304353FF30435BF6C20363FBCE733BF36
:102EB000233A373FC9C832BF1652383F1DA831BF29
:102EC0004268393FBB8530BFA47C3A3FA5612FBF24
:102ED0003B8F3B3FDE3B2EBF03A03C3F69142DBF21
:102EE000F9AE3D3F4AEB2BBF1BBC3E3F82C02ABF21
:102EF00067C73F3F159429BFDAD0403F056628BF1A
:102F000070D8413F563627BF29DE423F0A0526BF0B
:102F100000E2433F25D224BFF5E3443FA99D23BFF0
:102F200003E4453F996722BF2AE2463FF92F21BFBC
:102F300065DE473FCBF61FBFB3D8483F12BC1EBF6C
:102F400012D1493FD17F1DBF7FC74A3F0C421CBFF2
:102F5000F8BB4B3FC6021BBF79AE4C3F00C219BF46
:102F6000029F4D3FC07F18BF908D4E3F073C17BF5B
:102F70001F7A4F3FD9F615BFAF64503F39B014BF29
:102F80003D4D513F2A6813BFC633523FB01E12BF9A
:102F90004918533FCDD310BFC3FA533F84870FBFA7
:102FA00031DB543FDA390EBF93B9553FD0EA0CBF3D
:102FB000E595563F6B9A0BBF2670573FAD480ABF49
:102FC0005348583F9BF508BF6A1E593F36A107BFBB
:102FD0006AF2593F824B06BF50C45A3F84F404BF83
:102FE0001A945B3F3D9C03BFC7615C3FB14202BF87
:102FF000532D5D3FE4E700BFBEF65D3FB217FFBE55
:1030000005BE5E3F275DFCBE27835F3F2DA0F9BE56
:103010002146603FCBE0F6BEF206613F071FF4BEDB
:1030200098C5613FEA5AF1BE1082623F7994EEBEC4
:103030005A3C633FBBCBEBBE73F4633FB700E9BEC2
:1030400059AA643F7533E6BE0B5E653FFA63E3BE83
:10305000880F663F4F92E0BECCBE663F79BEDDBEB4
:10306000D86B673F80E8DABEA816683F6B10D8BE01
:103070003CBF683F4136D5BE9165693F095AD2BE13
:10308000A7096A3FCA7BCFBE7BAB6A3F8B9BCCBE96
:103090000C4B6B3F53B9C9BE58E86B3F29D5C6BE30
:1030A0005E836C3F15EFC3BE1D1C6D3F1E07C1BE86
:1030B00093B26D3F4A1DBEBEBE466E3FA031BBBE41
:1030C0009ED86E3F2A44B8BE30686F3FEC54B5BE00
:1030D00073F56F3FEF63B2BE6680703F3A71AFBE6B
:1030E0000809713FD47CACBE578F713FC486A9BE1E
:1030F0005213723F128FA6BEF894723FC595A3BEBD
:103100004714733FE59AA0BE3F91733F789E9DBEE2
:10311000DD0B743F86A09ABE2284743F17A197BE30
:103120000BFA743F31A094BE976D753FDD9D91BE43
:10313000C6DE753F229A8EBE974D763F07958BBEB1
:1031400007BA763F938E88BE1724773FCE8685BE1A
:10315000C58B773FC07D82BE10F1773FE1E67EBE32
:10316000F853783FCCCF78BE7BB4783F51B672BE6F
:103170009812793F7F9A6CBE4E6E793F667C66BE30
:103180009DC7793F135C60BE841E7A3F97395ABE53
:1031900002737A3F011554BE16C57A3F60EE4DBEEC
:1031A000BE147B3FC2C547BEFC617B3F379B41BE1F
:1031B000CDAC7B3FCF6E3BBE31F57B3F984035BEFB
:1031C000283B7C3FA2102FBEB07E7C3FFCDE28BE99
:1031D000C9BF7C3FB6AB22BE73FE7C3FDE761CBE11
:1031E000AC3A7D3F834016BE74747D3FB70810BE75
:1031F000CCAB7D3F86CF09BEB1E07D3F029503BEDB
:1032000024137E3F73B2FABD23437E3F7638EEBD72
:10321000B0707E3F2EBCE1BDC99B7E3FB93DD5BDA0
:103220006DC47E3F36BDC8BD9DEA7E3FC33ABCBD7E
:10323000580E7F3F80B6AFBD9D2F7F3F8C30A3BD22
:103240006D4E7F3F05A996BDC76A7F3F0A208ABDA4
:10325000AB847F3F742B7BBD189C7F3F681462BD9D
:103260000FB17F3F2FFB48BD8FC37F3F07E02FBDCE
:1032700098D37F3F2CC316BD29E17F3FB949FBBCE2
:1032800043EC7F3FB00AC9BCE6F47F3FB6C996BCA9
:1032900011FB7F3F900E49BCC4FE7F3F890FC9BB25
:1032A00008000010100000021800001220000004A6
:1032B0002800001430000006380000164000000806
:1032C000480000185000000A5800001A6000000C66
:1032D0006800001C7000000E7800001E80000008CE
:1032E000880040109000400298004012A000400466
:1032F000A8004014B0004006B8004016C0004008C6
:10330000C8004018D000400AD800401AE000400C25
:10331000E800401CF000400EF800401E00010008CC
:103320000801801010018002180180122001800421
:103330002801801430018006380180164001800881
:10334000480180185001800A5801801A6001800CE1
:103350006801801C7001800E7801801E8001400889
:103360008801C0109001C0029801C012A001C004E1
:10337000A801C014B001C006B801C016C001C00841
:10338000C801C018D001C00AD801C01AE001C00CA1
:10339000E801C01CF001C00EF801C01E00020008C8
:1033A0000802001110020003180200132002000599
:1033B00028020015300200073802001740020009F9
:1033C000480200195002000B5802001B6002000D59
:1033D0006802001D7002000F7802001F8002800842
:1033E000880240119002400398024013A002400559
:1033F000A8024015B0024007B8024017C0024009B9
:10340000C8024019D002400BD802401BE002400D18
:10341000E802401DF002400FF802401F0003400880
:103420000803801110038003180380132003800514
:103430002803801530038007380380174003800974
:10344000480380195003800B5803801B6003800DD4
:103450006803801D7003800F7803801F8003C008FD
:103460008803C0119003C0039803C013A003C005D4
:10347000A803C015B003C007B803C017C003C00934
:10348000C803C019D003C00BD803C01BE003C00D94
:10349000E803C01DF003C00FF803C01F00040010B4
:1034A0000804081010040011180408122004081061
:1034B00028040814300408063804081640040808D4
:1034C000480408185004080A5804081A6004080C34
:1034D0006804081C7004080E7804081E8004001894
:1034E000880448109004001998044812A004081891
:1034F000A8044814B0044806B8044816C004480894
:10350000C8044818D004480AD804481AE004480CF3
:10351000E804481CF004480EF804481E000540105A
:10352000080588101005401118058812200548105C
:10353000280588143005880638058816400588084F
:10354000480588185005880A5805881A6005880CAF
:103550006805881C7005880E7805881E800540184F
:103560008805C810900540199805C812A00548188C
:10357000A805C814B005C806B805C816C005C8080F
:10358000C805C818D005C80AD805C81AE005C80C6F
:10359000E805C81CF005C80EF805C81E0006801016
:1035A0000806081110068011180608132006881056
:1035B00028060815300608073806081740060809C7
:1035C000480608195006080B5806081B6006080D27
:1035D0006806081D7006080F7806081F8006801808
:1035E000880648119006801998064813A006881886
:1035F000A8064815B0064807B8064817C006480987
:10360000C8064819D006480BD806481BE006480DE6
:10361000E806481DF006480FF806481F0007C010CE
:10362000080788111007C011180788132007C81051
:103630002807881530078807380788174007880942
:10364000480788195007880B5807881B6007880DA2
:103650006807881D7007880F7807881F8007C018C3
:103660008807C8119007C0199807C813A007C81881
:10367000A807C815B007C807B807C817C007C80902
:10368000C807C819D007C80BD807C81BE007C80D62
:10369000E807C81DF007C80FF807C81F0808101072
:1036A00010084008180810122008001128081014EB
:1036B0003008801138081016480810185008100AF1
:1036C0005808101A6008100C6808101C7008100EBA
:1036D0007808101E8008000A880850109008000B17
:1036E00098085012A008080AA8085014B008080B3F
:1036F000B8085016C008100AC8085018D008500A58
:10370000D808501AE008500CE808501CF008500E79
:10371000F808501E08099010100980091809901225
:1037200020090019280990143009801938099016C9
:103730004009000B480990185009900A5809901A3E
:103740006009900C6809901C7009900E7809901E11
:103750008009400A8809D0109009400B9809D012BE
:10376000A009480AA809D014B009480BB809D01616
:10377000C009500AC809D018D009D00AD809D01AEF
:10378000E009D00CE809D01CF009D00EF809D01ED1
:10379000080A1011180A1013200A4011280A1015DF
:1037A000300AC011380A1017480A1019500A100BB5
:1037B000580A101B600A100D680A101D700A100FBD
:1037C000780A101F880A5011900A800B980A50132B
:1037D000A00A5011A80A5015B00A880BB80A501751
:1037E000C00A800BC80A5019D00A500BD80A501BC7
:1037F000E00A500DE80A501DF00A500FF80A501F59
:10380000080B9011180B9013200B4019280B9015E2
:10381000300BC019380B9017480B9019500B900BB8
:10382000580B901B600B900D680B901D700B900F48
:10383000780B901F880BD011900BC00B980BD013F6
:10384000A00B5019A80BD015B00BC80BB80BD01794
:10385000C80BD019D80BD01BE00BD00DE80BD01D36
:10386000F00BD00FF80BD01F000C0012080C181032
:10387000100C0013180C1812200C0812280C181425
:10388000300C0813380C1816400C1012480C18187D
:10389000500C1013580C181A600C1812680C181CD5
:1038A000700C180E780C181E800C001A880C58101A
:1038B000900C001B980C5812A00C081AA80C581455
:1038C000B00C081BB80C5816C00C101AC80C5818AD
:1038D000D00C101BD80C581AE00C181AE80C581C05
:1038E000F00C580EF80C581E000D4012080D9810E0
:1038F000100D4013180D9812200D4812280D981421
:10390000300D4813380D9816400D5012480D981878
:10391000500D5013580D981A600D5812680D981CD0
:10392000700D980E780D981E800D401A880DD810D5
:10393000900D401B980DD812A00D481AA80DD81450
:10394000B00D481BB80DD816C00D501AC80DD818A8
:10395000D00D501BD80DD81AE00D581AE80DD81C00
:10396000F00DD80EF80DD81E000E8012080E18119A
:10397000100E8013180E1813200E8812280E18151A
:10398000300E8813380E1817400E9012480E181972
:10399000500E9013580E181B600E9812680E181DCA
:1039A000700E180F780E181F800E801A880E58118E
:1039B000900E801B980E5813A00E881AA80E58154A
:1039C000B00E881BB80E5817C00E901AC80E5819A2
:1039D000D00E901BD80E581BE00E981AE80E581DFA
:1039E000F00E580FF80E581F000FC012080F981154
:1039F000100FC013180F9813200FC812280F981516
:103A0000300FC813380F9817400FD012480F98196D
:103A1000500FD013580F981B600FD812680F981DC5
:103A2000700F980F780F981F800FC01A880FD81149
:103A3000900FC01B980FD813A00FC81AA80FD81545
:103A4000B00FC81BB80FD817C00FD01AC80FD8199D
:103A5000D00FD01BD80FD81BE00FD81AE80FD81DF5
:103A6000F00FD81BF80FD81F0810201010104010AE
:103A7000181020122810201430108810381020162A
:103A80004010001148102018501040115810201AF2
:103A9000601008126810201C701088127810201E08
:103AA00080100012881008129010401298106012B6
:103AB000A0102012A8106014B0106012B810601688
:103AC000C0100013C8106018D0104013D810601A2E
:103AD000E0101812E810601CF0109812F810601E28
:103AE00008112012101140111811A01220110818ED
:103AF0002811A014301188183811A0164811A018E8
:103B00005811A01A6011081A6811A01C7011881AA7
:103B10007811A01E801110128811181290115012E5
:103B20009811E012A0111818A811E014B0119818FB
:103B3000B811E016C0111013C811E018D0115013BD
:103B4000D811E01AE011181AE811E01CF011981AC7
:103B5000F811E01E00120018081208181012401880
:103B60001812201320122018281220153012601865
:103B7000381220174012001948122019501240190B
:103B80005812201B601220196812201D7012C812D2
:103B90007812201F8012001A8812081A9012401AF8
:103BA00098126013A012201AA8126015B012601AA1
:103BB000B8126017C012001BC8126019D012401B47
:103BC000D812601BE012201BE812601DF012601B6F
:103BD000F812601F0013101808131818101350184B
:103BE0001813A013201348182813A0153013C81851
:103BF0003813A017401310194813A0195013501967
:103C00005813A01B6013481A6813A01D7013C81A1C
:103C10007813A01F8013101A8813181A9013501AC3
:103C20009813E013A0135818A813E015B013D81870
:103C3000B813E017C013101BC813E019D013501BA2
:103C4000D813E01BE013581AE813E01DF013D81A3C
:103C5000F813E01F08142014101400151814201570
:103C60003014081538142816401400154814281864
:103C7000501410155814281A601420156814281CA4
:103C8000701418157814281E8014001C8814201C29
:103C90009014001D9814201DA014081CA814281CA2
:103CA000B014081DB8146816C014101CC814681885
:103CB000D014101DD814681AE014181CE814681CDD
:103CC000F014181DF814681E08152015101540155D
:103CD00018156015201528182815281C30154815AA
:103CE0003815A8164815A8185815A81A6015281AC6
:103CF0006815A81C7015A81A7815A81E8015401CF8
:103D00008815601C9015401D9815601DA015481C55
:103D1000A815681CB015481DB815E816C015501C2C
:103D2000C815E818D015501DD815E81AE015581C0C
:103D3000E815E81CF015581DF815E81E0016001CC3
:103D40000816081C1016401C1816481C2016201CAB
:103D50002816281C3016601C381628174016001D1F
:103D6000481628195016401D5816281B6016201D8D
:103D70006816281D7016601D7816281F8016801C76
:103D80008816A01C9016801D9816A01DA016881CD1
:103D9000A816A81CB016881DB8166817C016901C67
:103DA000C8166819D016901DD816681BE016981C06
:103DB000E816681DF016981DF816681F0017101CED
:103DC0000817181C1017501C1817581C20176818B3
:103DD0002817681C3017E8183817A8174017101D47
:103DE0004817A8195017501D5817A81B6017681AB4
:103DF0006817A81D7017E81A7817A81F8017C01C2D
:103E00008817E01C9017C01D9817E01DA017C81C4C
:103E1000A817E81CB017C81DB817E817C017D01CA2
:103E2000C817E819D017D01DD817E81BE017D81C01
:103E3000E817E81DF017D81DF817E81F18186018C4
:103E4000301848183818601C5818301A6818301C78
:103E50007018181A7818301E8018001A8818081A56
:103E60009018001B98186019A018201AA818281A72
:103E7000B018201BB818601DC018101AC818181ADE
:103E8000D018101BD818701AE018301AE818701CD7
:103E9000F018581AF818701E081920191819601A05
:103EA0002819081D301988193819881D4819201B30
:103EB0005819B01A6019081B6819B01C7019881BB2
:103EC0007819B01E8019401A8819481A9019401B99
:103ED0009819601BA019601AA819181DB019601B49
:103EE000B819981DC019501AC819581AD019501B62
:103EF000D819F01AE019181BE819F01CF019981BD2
:103F0000F819F01E381A701C581A301B681A301D28
:103F1000701A181B781A301F901AC01A981AC81AEB
:103F2000B01AE01AB81AE81AC01A801BC81A881BFF
:103F3000D01AC01BD81A701BE01AA01BE81A701DFB
:103F4000F01AE01BF81A701F281B481D381BC81DEB
:103F5000481B601B581BB01B681BB01D701BC81B87
:103F6000781BB01F901BC01B981BC81BA81B581D9B
:103F7000B01BE01BB81BD81DD81BF01BE81BF01DA5
:103F8000F81BF01F081C201C181C301C381C681C57
:103F9000481C601C581C701C781C381E801C001E9D
:103FA000881C201E901C001F981C201FA01C081E8F
:103FB000A81C281EB01C081FB81C281FC01C101EDF
:103FC000C81C301ED01C101FD81C301FE01C181E2F
:103FD000E81C381EF01C181FF81C781E081D201D38
:103FE000181D301D381DA81D481D601D581D701D51
:103FF000681D281F781DB81E801D401E881D601E6C
:10400000901D401F981D601FA01D481EA81D681E02
:10401000B01D481FB81D681FC01D501EC81D701E52
:10402000D01D501FD81D701FE01D581EE81D781EA2
:10403000F01D581FF81DF81E081E201E181E301EE9
:10404000481E601E581E701E781E381F881EA01E37
:10405000901E801F981EA01FB01E881FB81EA81F8C
:10406000C01E801FC81E881FD01E901FD81EB01FE4
:10407000E01EA01FE81EA81FF01E981FF81E781F44
:10408000081F201F181F301F481F601F581F701F58
:10409000781FB81F881FA01F901FC01F981FE01F08
:1040A000B01FC81FB81FE81FC81FE01FD81FF01F90
:1040B000D04000080000002014200000C4010008C7
:1040C000AC540008142000206416000020020008F0
:1040D0004523795DBF45DCEB29C04528C5193F451F
:1040E000459DA43D3CD88B391845430824403C5598
:1040F0000345083CA7E5D8203C6A1C4608457431B6
:1041000015BE4556D5BFBC3CB72C08283CEA9B964B
:10411000603C9F2C6C103C486F1F103CDF0B3968D3
:104120003C22582F1845E33980BD3C072C64203CC5
:104130008B45EC083C0DF798283C575A0B883C2CD3
:10414000118A104BDF8A903C3618B1283CD81819D8
:10415000103C85E936083CFFAC6B303CCB3D5F083A
:104160003C6B67A9383CD254CC683C5BD4C7103C4C
:10417000143483083C95C86D083C4E8D3B4013B603
:10418000DA39083C626D18083C203045483CEA7634
:10419000C7E845A9E5393E3C678626183C03B8AA1E
:1041A000104C4E0734103B8B29383CDC8180A03CFE
:1041B00009B7C660459889B53D3CE24621283C5583
:1041C000EC8A083C2DCA0E203C17ECD5303C3CE470
:1041D0003B103C068BD1583CE33964503CE5F7F08A
:1041E000183CF8918D283CE7291E203C5DD82048DA
:1041F0003C98389F103CA567142845E328B5383C07
:1042000042EBA7303C5D85EB183C3F3150303CF72A
:1042100035BB103CE017CE083CD70C43083C8B7BE9
:1042200079083C21D52F083C0DB1EC083C4AAD493A
:1042300008113BFE97503C9C4341083C34CCACD821
:104240003CCF6A26583C0B867618459318BDBE3C79
:1042500007904F383CAE9165C83C965105203C6BA9
:10426000E723183C1E338D083C7BD50E204BB46DE4
:10427000B03CBE1FD9D03C72314D483CCA64176077
:104280003CA0367D203CEA5431303C9C6AE3203C23
:10429000B959A3883D5E5DAABB183B2A2A283CBABF
:1042A000C91F083CF38C09683C75DC24483C85FB3D
:1042B000C7103C6D33E8083C118FA5283C255A8374
:1042C000083C59D53E283CA72687083C1B0D2B707F
:1042D0003C29295B203C20BA46703D040BDCBCD055
:1042E0003B2EC9B03C7C76AA203C2A78F2083C9D43
:1042F00066B6083C85312E483C52F4CE103C7F46D1
:104300006350455CB78EBD3CDC9D48203C32FA864C
:10431000D03C9942D3283C76070D183CB6485F1034
:104320003C4B8A9DB03C5EBB83703C469AFE103C81
:104330006929FE203C8E45B5083CCFC790083C3922
:10434000B00F403C062DF8103C7BCA02783C336F1E
:1043500015103C9C83E4083C0B11FB483CDDD791D5
:10436000083CE460FD1813893139303C0B806A70D9
:104370003CD2FA5C103C2D7738083C6554C6283C8A
:10438000F62A52683CF06FA7C03CAF3261D83CA619
:104390009C98203C114225583CD84013383CD8E525
:1043A0008B183C1F3982083CE31812383C3CC1543E
:1043B000283C9D2214503C572C0E083C59A7EB80FA
:1043C0004589324F3D3C248FBA103C6DCDD7404BD0
:1043D0009785183C0FFF45483CE27722083CDC39C2
:1043E00019703C430FC8283CB7C80C503C09C2C5E3
:1043F000683CDA80FE183C62D420084C93D6B71093
:104400003BA8D6203C1BE5CC083CB8E341183C1047
:104410001D9940113BBE87803C7E2B77603CB8C124
:1044200018083C4CF869203C777743303C60509743
:10443000083C82AFAC083CF3661220456752EABCE8
:104440003C2242AD183C2657EC5045241E74BD3C1E
:10445000FD106E183C0BB486D83CF3A38D883C77D6
:104460000497683CA9EF06483C3C7D0E083CE715E4
:10447000B0203C2FF575383C0A010A183CBC22904C
:10448000183C416A30383C07593D103C958B7A10F6
:104490003CB5B5D7103CA58782103C3D5996403CB1
:1044A00090B038404502DC76BE3CBF2645203C96A5
:1044B0004703183C90112A383C7A51D9303C3EE7EA
:1044C000B9103C2003C3103CD61B30D03CC5ED9541
:1044D000303CCF07AB183C1CA4B5283C379A12E8F7
:1044E0003C1DAF12583C2535FB203C6E9C9A303C5D
:1044F000FDB3ED103C27CD26203C189213104577D4
:104500008CA83D3C13B7F1483C222464303CC1796F
:1045100070203C73A8F3083C981E29183CD6613BD8
:10452000C03C5D7D6F483C0A99D5403C7DA1EC4084
:104530003CCF95F1303CB3E7BAB03C51BF63103C7F
:104540009B4196203C26DB96103CC33A1C103C8ACB
:1045500067EA083CBF2EE6303C2170CC103CEFC926
:104560007A603C113C5E103C1A2815083C778F1489
:10457000183C60D573883C7AFA38983C28937820A8
:104580003C04882A083C4F4B4F203C21B503303C6B
:10459000A4B747083C842B5D803C402768283C68D2
:1045A00091B7103C5C3141103C462CA7503C7C221A
:1045B00015303CCB958E183C9FF805083C4718E019
:1045C000083CC03A66383CDD316AB83CF5A6F710C5
:1045D0003C668960403CDEDA06083C62DCC2203C76
:1045E0009AD0F3903C78030B183CC4CEE5484BA01E
:1045F0006B284513E7B8BC3CF3AC2C183C0D721883
:10460000303C83AA98403CEC2E91603CF7654930E1
:104610003C50D1AD104B49D8F03C38A447183C541D
:104620003C98183CF830C4083CF623D6083CC5B486
:1046300002203CA75FBD1045BCE42EBB3C908586A4
:10464000603C54012FF03CA6042C203C860B6F30BC
:10465000113B9625883C13BC3F683CD36390083CD3
:104660008D4F26083C81A4F0083CAE3D8C383C5C64
:104670005099103C04B5A5583C84E7D3183C48A693
:104680006A603C080AAB503CA19E07603C032B6E5D
:104690001845FFCD373D3C5BEA2E183C119CCB48BA
:1046A0003C39CE4D203C0B63E5483CA6C4CF403C92
:1046B000DAC920103CF178EA083C65503E283C17E6
:1046C0001F59203C1DB0BE803C8E98CE203C6474A7
:1046D00034083C69D58F583C10A50B283C574C41F9
:1046E000383CA7DA0C203C7E3DA3103CC67D570821
:1046F000113B538C903C4CE87D083CE44477283CCB
:10470000B61FA8603C8DD14B084CCEA988583B42BF
:10471000F8203CCDE68B083CB02D8C204575A427B5
:10472000BD3CF76AF2083C9C1FE2303C5081DE0839
:104730003CE44739603CAE549B103CE0476C083C7D
:10474000D1B68B083CFC7C4E903CFF1793103C1478
:1047500016D9603CB28C79083CB5BC9C403C44B551
:10476000CF203CE77915083CEAADD6203C7733F5FD
:10477000083C9175FD083C05C31A203CD39A70088B
:104780003C162BA2183CAA54BF083CA05B8EB83C38
:10479000B53BA7084B530F403C6658F4303C4F25BF
:1047A00008083C8AA3439845B44AC7BE3C73CA1A5A
:1047B000883C0D516A203C1D4ACAF03CB0FC674061
:1047C0003CA928A2503C34C48B283CA2EFBE283C14
:1047D0004E2FFB204C8B6933B03BDA41583CBF0F66
:1047E00014283C9749B7184C72C654F83B207C20DB
:1047F0003C639AAF503C552C31283CDE9D2F083C41
:104800000B9174203C54A291083CEA4951083CA801
:10481000084C203C63EE464845F3E1C63D3CCF5092
:104820009C883C9CB4A9183C62F029283CCA928917
:10483000103C424E31403C4CB0A7083C725DDE3823
:104840003C6FCD9A203CCAA0B34045D71A99BE3CD4
:10485000116682283C43FFDB183C25ED43503CE7C2
:104860004C94303C607058203C3B1475203CBA3767
:1048700038C83C93377A283C7D434E183CD4080313
:10488000283CAD04A3383C649B2B203C46A3381045
:104890003CC179CE083C8820ED403C7123C1083CE6
:1048A000B0FA02383CFECA36103C36A4F4983CD329
:1048B000DA70183C8074A6603CDDC65B183C34F0AE
:1048C000AB103C7D15AE103C540304283CEA292C67
:1048D000E83CA8CB24203CA7EDF4703CA65D7120F9
:1048E0004C366786383B188E983C7FCAE3703C573D
:1048F0008439203C8A03FA203C7BBD30103C335580
:10490000FB103C94CE0A303C33B883083CB1E085C0
:10491000203C46B519203C56CB28683C983D7E0883
:104920003C27AB1D283C7B0E70203C515546103C6B
:10493000B8B316083C65A6D5B83CC4070C483CEF94
:10494000FC8C283C29E44B203CD9E116183CAA9069
:104950007CA03CE61B8E103CDC270F204B8EF99090
:104960003C81E401083CACDA0A283C5E94A3803C1C
:10497000EDC7F6083C5DE7AD204B24B0283CBC3CBD
:1049800081683C654674303C0C3304283C2C196F1C
:10499000084CD38A1F183BDACAA03C1D496A183C50
:1049A00090942A383C894DC2103CF0A1EA283C94EE
:1049B000159F104518386D3D3C6C7D7E283C0CC819
:1049C00018703CFC28EB283C2E2D6908457DD9F752
:1049D0003C3CEA63A9383CCDCE94283C37D6804095
:1049E0003C069F5DE83CA2DCA6483CD817B7283CB3
:1049F0002221D6084B162E603C91AC24A03C247B8F
:104A00009E183C56D716083C25E314403C9BE18D8C
:104A1000583C7714D5303CA86E17103CA1309B1041
:104A20003C1D229B104B08F8983CDFA9EE083CD6B1
:104A30000EAC483CFA8A81083C2A1436283CFFBE5A
:104A4000C6103C4B73B9083C1C0F02303C6D66D558
:104A5000103C38305B783C7FCF74603C236F6E38FD
:104A60003C05D2CA203C21BBD3084CBF9C33D83B69
:104A7000E928403C26403D183C70B50A303CD7D769
:104A80009ED83CDA0812103CAA1DDC303CF2CE3F26
:104A9000103C1CE9FF303C0A9F95283C840E962070
:104AA0003CDF7449503CB0CE3E883C81D028083C65
:104AB000CA8EB7203C643562083CA68EB7403CBB2A
:104AC000B2C3083C77A453583C7F51CC503C790684
:104AD00088083C752A60403C9E8E54383C454D61A8
:104AE000183D4174B9BDC03B9845183C70F4AC0802
:104AF0003C4C8471303CA5F8F1883C044D15103CC9
:104B00009D47ED203C976F42083CD5DEA9083CE16B
:104B10003221203C02B343103C1B7A8E603C423A67
:104B20002A603CA98EB1183C573B27283CC853C586
:104B300020133E5C39103CF95373C03C755C9508FA
:104B40004BAD6BE83C6E9522203C14FC91183C5018
:104B5000186BE03C02C1E6403C5DEECC284B53F1C3
:104B6000C03CF2533E303C3847AE303C945EB41803
:104B70003C3DA07610124C3A02403C34BA7B183CC3
:104B8000C8875D103CD57826083C6DAD08283CE20E
:104B90002228103CAD421F283C3C9994183C1EFF33
:104BA00019183CE3D689103CE45BE5083C28DC3F5F
:104BB000083C7E5FAA203C0FF484103C06D306100C
:104BC0003C99C728483C625C0508456BF063BD45CD
:104BD000B58D953E3C643D9528136F1139D83CBB8B
:104BE000F71C103C094E36483C417348303C932733
:104BF000E9103C22634F483C1C5B49303C30A733F2
:104C000018454B761D403C196C60083C4F862D487A
:104C10003CEC7728203CB59002103C22E80C203C6C
:104C2000A23B97483CC103D2203CB083CE084B192D
:104C300010F03C0AC721283C1C7CFE684C26CF792A
:104C4000F03B7A37483C30638F403CA293BF283C0E
:104C500065E3CBD03C35EB62203CA5F29F103C22B3
:104C6000FB10103C71C84A30114B1D6FF03B2143C3
:104C7000103C9D2512403CDCEB71083C318147081B
:104C800013D5B639283C34E78E4813333739183CEE
:104C9000AD5DB9883CB6AE15403CEB646B083CFC9E
:104CA0009044303C8228C7204C3BE10E5844744F5E
:104CB000BC3CFDE2BE483C0F3A18183C43C2BA382F
:104CC0003C35C977303C5652A9103CC45284103C44
:104CD0000325E8083C4D6B99303C6BC027203CAF66
:104CE0005F0E683C836718103CB14C57203C6E84C3
:104CF000EE103C4214F70845AAA591BE3C4C626CEC
:104D0000483C7A24F6183C84F79E883CEF0BAA08AE
:104D10003C166AD4203C3DD7EE083C06423F383C66
:104D20006CABD9103C7D8BFE283C0147F1183CE868
:104D300030DD083C8E0180883CD0A6D4103CB6768D
:104D4000A228456E421D3D3C237935103C471A0888
:104D5000783C978B2D303C2551A8183C253C706041
:104D60003CCC6A78203CBFD3EF083C703536203C01
:104D70000E581F083C7E64A3283C606DED683DBB67
:104D80009A84BD683BDFDC183C79670E183CA9DDCE
:104D9000FC403CB29B4E183CEE62A7183C950DB906
:104DA000183CE5DE18184539E22E403C6F0E3A906B
:104DB0003CBA0ABB183C08B3DA083C53C869203C2B
:104DC000E39A2E383C340890483C49120E103C3689
:104DD000397B283C13C8A3103C22DF15F03C04F9B2
:104DE00013383C6D99E0183CC31F75283C9C6655F0
:104DF000083C97C5DFD03C071966103CF1939758E3
:104E00003C37FF48103CFDA722903CA5670E483C6C
:104E1000562CCB183C92F0B5083C37F840203CB0FB
:104E2000F3E3603CE7A55D183CD91936183C29FD31
:104E3000B8183C49C20B403C58E994103C2F3062F2
:104E4000083C15AF9C303C4B60ED083C093CE41835
:104E50004BEB4BB83C04370A183C2A2DFB183D0B92
:104E6000AA78BD703B33AD183C42CFBD084BAB09AF
:104E7000F83C19395D783C052670083CAB53624814
:104E80003C17FB52E83C0FE3BD103C1428F9E83C0A
:104E9000B0C0A8083C808ABF403C772D0D283CA2BA
:104EA000D7DF183C30B22B303CCF2C1C503C5F8AF3
:104EB000B7283CA281D4203C46B2FD103C1043AC44
:104EC000083C328015283C537288103C637A2F408E
:104ED0003CA584E0A83C3AC16A603CC9062E103C5F
:104EE000D28A11303CC36519183CC50C0F583CDA06
:104EF0007E31183CA8E88C083C5B07BC303CD33CB6
:104F00002A583C519B5C183C03CDEC103CCD82C62A
:104F1000203C068168184C68FA53183BD132803C1B
:104F20001A1018203C0F3712683C256E0D203CA546
:104F30009557083CF208B5083CB1849F803C0A5B59
:104F4000C1103C939AD8083C651F1D08451F9985E0
:104F50003D3C399A24683C077FDA584CBA832C20B0
:104F60003BCE63083C175219203C2D8B90103CE13E
:104F7000AE11083C4376C4904CF87852103B8D52E9
:104F8000283C5FD1D5983CCE3ABF183C33A9D48891
:104F90003CA8CC93183CABA4F2683C9CFB0E183C9C
:104FA00025F9B8283CC12338503C7FA198103CF02B
:104FB000DDBE503CDE2312103C6A0315203CF0E1BC
:104FC000AA483C45679C183CF57F71083C8FC1326C
:104FD000203CAD6E4A083C8F4A06083C7E947A48D5
:104FE0003CF6721E083C6E38DC303C1005A3883C51
:104FF0005F529B083C648B32183C83AB9E983C48C4
:10500000D827403C40DB04383C042147203CDCF2FC
:105010007D103C974144084BCECDB03C75635B9806
:105020003C681527183CCB6FA1583C122195083CD1
:105030000FEB8E084C3EE258B83B5A5E2845CD63D4
:10504000AA3C3C9F9D77103C7805E1203CCB3C5E20
:105050000812BC3A69083C537EF0403CFBECDA1085
:105060003C0706BC103C7757E6103CC0839D403C93
:10507000D4B060883C70BF78203CCDC670084595A0
:10508000E6FA3D3CF4D4AF104B1653683CCF92C8BF
:10509000303CC56721F03C207DA6203CDFCA0908D2
:1050A0003C42144C283CCA293A203CAFA2CB1012F7
:1050B0005E3A89203C8A6256783C636498103CE4EE
:1050C00082AE203C023AE81045BF8ABFBC3C280EA5
:1050D000DC183CD10457083CDFC780083C8EFD4FEC
:1050E000083C86BEE0083C92FF22683C1414C7408E
:1050F0003CD22E82183C97207F083CA7309D183C5C
:105100001DE799283CF75B14083CC47C9A183C7E48
:105110000AA3283C0B6E39083C518BC2083C99FA13
:105120002FA84C83235BE83BBD6D103C5A71CE2009
:105130003C707202103CB947BC103C072507283C64
:1051400062E3831045377DD7BE3C5942C06845466F
:1051500095E73E3C5B93CD103C763280403C7FC768
:1051600009083C6BF9D5383CED75DB083C71798159
:10517000283CA08F13083C18D33B183C1F8B800899
:105180003CA44A81083CF4EE73783C3F61A7483C5C
:1051900059942D183C82C2A0083CBA56D6083C97B8
:1051A0000ED4483C2AAB95103CDB6006083CFB72F1
:1051B00019403C21F506083C566802083C7BA81FB4
:1051C000303C98FB3E103C5DEB90303C5AFE36681C
:1051D0003CA6BD79203C5B12AE083CD7A63D183CEE
:1051E00053376AF83C449FB4183C71D63D38456E3D
:1051F000BFFE3E3C57CD17503CA01F88183CFF1DFA
:1052000024283C1CFE5A083CE50C14183C305F4036
:10521000283C1411FB103C64334D603CD496BA60BA
:105220003CDBBF86083CA7F6EB203C4395D6103C00
:105230006CC7D4104B458B503C716225383CB3E0B1
:105240005D503C37B561203CF4C3E8904C0D5EDE08
:10525000783B690A203C259677301342E739103CA9
:10526000220734203CAF425A183C4CF5EC103C99D4
:10527000E7684845AE2DBC3D3C030D2C203C69F849
:1052800067203C4B675E403CF1EC12103C0DEDDBBF
:10529000A03C06C97D383C68C6FC083CF2CC7908C5
:1052A0003CD9A743403C409079083C9B91B9A03C35
:1052B0005CEE8F403C052BE7283C602C31203CD233
:1052C000407A204BF9A4883C0299A0083C0BD1B548
:1052D000303C2E2B60083C843C3C283C56255738FB
:1052E000113BEF4B183C4E82D4083CABC4D3384C36
:1052F0009B1932F03B83B5104C4CD451B83BC74E90
:10530000103CD02471103C650414483C5F575F1872
:105310003C40666B083C146F05183CBB79FC283C8C
:10532000EB7C86083C1C6DD4203CBB0AE9103C5148
:10533000F898083C16E4D1083C7AF1CE203C6B9DED
:1053400080803C5F815D084C9D38D21844DE3DBDB5
:105350003C59C52B084CF32B198044D5AEBE3CDF1D
:10536000BDC8083CEC8F60083C8F0C01203C5131DB
:1053700027604C76B1BBC03BCF37183C400F0A08C2
:105380003C672739183CE24671703CB631F6303C38
:10539000201825184B47C6D03CB5D88D583CCC3C7E
:1053A00007203CE32821303C9B3985284C4DF09167
:1053B000903B5868283C704EDB183CEECF52183CAE
:1053C000A5818E383CAF22840812CC3ACC203C78A0
:1053D000989F103CB8E942383CDA14DC103C65F97F
:1053E00034383C4950BDF03C2EDB10183C28F9897C
:1053F000083C90B59A083CB3BE3F283C63DE389029
:105400003CA51635083C07F35B204C1A12FC383BD0
:105410000647703CEAD0FF504515FE043E3C01268D
:1054200086403CF68041383CD52B93283C127102D3
:10543000104B2708183C1D8B9A283C558FD5503CA3
:10544000F26575283CC77BC6083C3668BA183C3DF7
:10545000FFA2603C74011D303CA2F597683C22C15C
:1054600081E04CBC9FB5303B23D6303C9C7CCF08C0
:105470003CA8E48A083C4E153D203CDE4206403CF8
:10548000A0902D803C22D0BF183C71A2A8083C23DC
:10549000049B503C59C736703C0C9815283C9DC362
:0C54A0007E381162042A01D47100000063
:0400000508000329C3
:00000001FF
