:020000040800F2
:1000000080360020090300081103000813030008CC
:10001000150300081703000819030008000000007A
:100020000000000000000000000000001B030008AA
:100030001D030008000000001F0300082103000842
:1000400023030008230300082303000823030008F8
:1000500023030008230300082303000823030008E8
:1000600023030008230300082303000823030008D8
:1000700023030008230300082303000823030008C8
:1000800023030008230300082303000823030008B8
:1000900023030008230300082303000823030008A8
:1000A0002303000823030008230300082303000898
:1000B0006D2A000823030008230300082303000817
:1000C0002303000823030008230300082303000878
:1000D0002303000823030008230300082303000868
:1000E0002303000823030008230300082303000858
:1000F0002303000823030008230300082303000848
:100100002303000823030008230300082303000837
:100110002303000823030008230300082303000827
:100120002303000823030008230300082303000817
:100130002303000800000000000000002303000863
:1001400023030008230300082303000823030008F7
:1001500023030008230300082303000823030008E7
:1001600023030008230300082303000823030008D7
:1001700023030008230300080000000023030008F5
:10018000230300082303000800F002F800F0ACF895
:100190000AA090E8000C82448344AAF10107DA45E2
:1001A00001D100F0A1F8AFF2090EBAE80F0013F088
:1001B000010F18BFFB1A43F00103184740710000FC
:1001C00060710000103A24BF78C878C1FAD852078D
:1001D00024BF30C830C144BF04680C6070470000C1
:1001E0000023002400250026103A28BF78C1FBD840
:1001F000520728BF30C148BF0B6070474B1C012B12
:1002000098BF70472DE9F003911C9B08B1F804805A
:10021000B1F802900A8831F802CC8044814402444B
:100220008444D9F80070D8F800601568DCF8004004
:10023000C9F80060C8F80070CCF800501460D9F814
:100240000470D8F804605568DCF80440C9F804600C
:10025000C8F80470CCF80450546008315B1ED5D146
:10026000BDE8F00370474B1C012B98BF70472DE988
:10027000F003911C9B08B1F80480B1F802900A8841
:1002800031F802CC00EB580800EB590900EB5202A0
:1002900000EB5C0CD9F80070D8F800601568DCF849
:1002A0000040C9F80060C8F80070CCF80050146035
:1002B00008315B1EDFD1BDE8F0037047662904F00A
:1002C0002980642900F07287002070471FB503F071
:1002D00069FF01F02FFA04000020002102F06EFEF9
:1002E000E0601FBD10B510BD01F038FB1146FFF7EF
:1002F000EDFF02F0FFFD01F056FB03B4FFF7F2FF44
:1003000003BC01F0FDFB0000094880470948004795
:10031000FEE7FEE7FEE7FEE7FEE7FEE7FEE7FEE7B5
:10032000FEE7FEE704480549054A064B7047000012
:10033000052A00088901000880300020803600204E
:1003400080320020803200209FED3D0A5FEA920C4F
:1003500057D000BFD0ED000A90ED011A0B1D60EEE2
:10036000A00A083041EE010AF5EEC00AF1EE10FADB
:10037000C6BFB1EEE01A81ED001A81ED000AD0EDA2
:10038000000A90ED011A191D60EEA00A083041EE36
:10039000010AF5EEC00AF1EE10FAC6BFB1EEE01A9E
:1003A00083ED001A83ED000AD0ED000A90ED011AEA
:1003B0000B1D60EEA00A083041EE010AF5EEC00AFE
:1003C000F1EE10FAC6BFB1EEE01A81ED001A81ED30
:1003D000000A90ED001AD0ED010A191D21EE011A54
:1003E000083000EEA01AB5EEC01AF1EE10FAC6BF42
:1003F000F1EEC10AC3ED000A83ED000ABCF1010C65
:10040000A8D112F0030208BF704700BFD0ED000A68
:1004100090ED011A0B4660EEA00A091D083041EE6E
:10042000010AF5EEC00AF1EE10FAC6BFB1EEE01A0D
:1004300083ED001A83ED000A521EE7D170470000D9
:10044000000000002DE9F04106462DED028B8C46A0
:100450000088736801EB80044508274601EB85009E
:1004600004EB85025FEA95087DD000BFD1ED003A2C
:10047000D4ED001A91ED012A94ED013A73EEA16AD0
:1004800091ED024A91ED031AD4ED022AD4ED035AFC
:1004900090ED008A90ED017A90ED020A90ED036AEA
:1004A00092ED005AD2ED014AD2ED027AD2ED030A62
:1004B000C1ED006A72EE036A73EEE13A74EEC71A98
:1004C000C1ED016A74EE226A74EE622A37EEC04A08
:1004D000C1ED026A71EE256AC1ED036A72EE436AEC
:1004E00031EE652A38EE051A35EE483A80ED001AED
:1004F00037EE241A80ED011A30EE271A80ED021A29
:1005000036EE201A80ED031A30EEC61A93ED000A7B
:10051000D3ED010A63EE804A26EEA05A66EE805AB9
:1005200063EEA03A74EE854A75EEE33AC4ED004AF4
:1005300063EE204AC4ED013A61EE803A61EEA00A12
:1005400023EE000A74EEE31A30EE800AC2ED001AC0
:1005500082ED010A93ED020AD3ED030A62EE803ABE
:1005600022EE203A00E024E062EEA01A22EE002AF9
:1005700073EE832A1030103172EE611AC4ED022A34
:1005800024EE202AC4ED031A61EE001A61EE200A5F
:1005900024EE000A103332EE611A103430EE800A75
:1005A00082ED021A82ED030A1032B8F101087FF4DD
:1005B0005DAF294602236046726800F041FB726815
:1005C0002946BDEC028B3846BDE8F041022300F01D
:1005D00037BB2DE9F34F2DED048B87B00B980088C6
:1005E000470801EB870000EB870606EB8705CDE99E
:1005F0000056DDF82C80A5F1040C0CEB8703CDE947
:1006000002014FEA5709D8F804800427CDE904977E
:10061000D1ED000A96ED000A90ED011A95ED013A30
:1006200070EE802A70EEC03AD1ED010A96ED010A13
:10063000041F321F30EE802A70EEC01A31EE230AFA
:10064000D0ED000A32EE415A33EEC11A30EE434A81
:1006500071EEE04A95ED000A70EEA11A35EE435AAC
:1006600074EE805A72EEE04A70EEA20A71EEC01A81
:1006700031EE031A74EEC04A30EE800A062708F104
:10068000080A81ED000A90ED010AD5ED010A08F192
:10069000100B30EE020A08F1180830EE200A81ED46
:1006A000010A80ED004AC0ED015AC6ED004A86ED10
:1006B000015A85ED001AC5ED011ADDF810900830D9
:1006C000083108350836A9F102095FEA590900F036
:1006D000078100BFD1ED000A96ED000AD0ED011AA6
:1006E000D5ED014A30EE802A30EEC05AD1ED010A34
:1006F00096ED010A70EE802A30EEC01A31EE850ABE
:10070000D5ED000A30EE644A90ED000A31EE403A31
:1007100030EE011A73EE205A32EE403A30EE020A01
:1007200031EE601A73EE603A30EE200A32EEE13AB2
:1007300075EE611A81ED000A90ED010AD5ED010A0E
:1007400033EE643A30EE220A71EEA41A30EE200A3B
:1007500081ED010AD4ED002ADCED004A54ED010AD6
:100760001CED010A32EEA47A32EEE49A72EEE42A2B
:1007700052ED018A70EE807A30EEC02A72EEE82ADD
:10078000D2ED000A93ED000A13ED018A30EEC05A53
:1007900072EE886A77EEE82A35EE026A32EEC85ABF
:1007A00077EE602A72EEC04A70EEC02A70EE870AB9
:1007B00072EEC22A30EE800A38EE682A84ED000A12
:1007C00012ED010A53ED010A32EE492A30EE270AF2
:1007D00030EE200A04ED010A9AED000ADAED010A72
:1007E00064EE007A25EEA07A65EE805A24EE204A67
:1007F00037EE877A35EEC44A80ED007A80ED014A03
:1008000026EEA04A66EE005A66EE200A26EE800A20
:10081000083034EE654A083130EE800A82ED004A35
:10082000083C02ED010A9BED000ADBED010ADDF850
:1008300014E023EE804A63EE205A23EE003A63EE82
:10084000A03A083A34EE254A0BEB8E0B33EE633AAE
:1008500086ED004A0AF1080A86ED013AB1EE643AE3
:10086000083663EE003A25EE203A25EE000A64EEE3
:10087000A00A33EEC33A30EEC00A8CED003A0CED1C
:10088000010A98ED000AD8ED010A08EB870861EE2D
:10089000803A21EE203A21EE001A61EEA01AACF166
:1008A000080C33EE833A31EE611A85ED003A62EEC0
:1008B000801A85ED011A22EE201A62EEA00A22EEBD
:1008C000000A083531EE611A30EE800A83ED001A15
:1008D00003ED010A083BB9F101097FF4FBAE00BF4B
:1008E000D1ED000A96ED000A91ED011AD0ED015A02
:1008F00030EE802A70EEC00A96ED010A95ED015A9D
:10090000042371EE001A71EE404A35EEA00A90ED14
:10091000001A31EEE54A70EEE50A30EE453A95ED03
:10092000000A34EE454A30EE855A74EEC12A72EE62
:10093000413A71EE240A31EE021A72EE802A73EE09
:10094000C03A70EEC00A31EE000A81ED000A90ED67
:10095000010A95ED011A30EE210A30EE010A81ED0F
:10096000010A9AED000A9AED011A63EE001A22EECE
:10097000812A22EE800A23EE011A71EE821A30EEED
:10098000410AC0ED001A80ED010A9BED000A9BEDC3
:10099000011A63EE801A24EE012A24EE000A23EEE7
:1009A000811A71EE821A30EE410AC6ED001A86ED08
:1009B000010A98ED010A98ED001A60EE801A25EE02
:1009C000012A60EE810A25EE000A32EE211A30EE8D
:1009D000C00A85ED001A85ED010A0B984268DDE931
:1009E000030100F02DF90B98042304994268029842
:1009F00000F026F90B98042304994268019800F04E
:100A00001FF90B98049904234268009807B0BDECC5
:100A1000048B02B0BDE8F04F00F012B92DE9F041AF
:100A20000488984617460D460646012A20D1281DFF
:100A3000F4B1A0F1080114F0010F06D091ED020A03
:100A4000B1EE400A81ED020A08315FEA540C0FD082
:100A500091ED020AB1EE400A81ED020A91ED040A1D
:100A6000B1EE400A81ED040A1031BCF1010CEFD166
:100A7000B4F5807F1BD008DC102C13D0202C16D0AE
:100A8000402C19D0802C0DD01CE0B4F5007F13D081
:100A9000B4F5806F06D0B4F5006F08D0B4F5805F70
:100AA0000AD00FE029463046FFF7CCFC0AE0294681
:100AB0003046FFF78EFD05E0214601232846726887
:100AC00000F0BEF8B8F1000F04D0B1892846B26832
:100AD000FFF794FB012F18BFBDE8F08100EE104A2C
:100AE000B7EE001A002CF8EE400A81EE200A08BF8B
:100AF000BDE8F081A5F1080014F0010F0ED0D0ED93
:100B0000020A60EE800AC0ED020AD0ED030AF1EE9F
:100B1000600A60EE800AC0ED030A0830610808BF71
:100B2000BDE8F081D0ED020A60EE800AC0ED020A55
:100B3000D0ED030AF1EE600A60EE800AC0ED030A10
:100B4000D0ED040A60EE800AC0ED040AD0ED050A7B
:100B5000F1EE600A60EE800AC0ED050A1030491E11
:100B6000E0D1BDE8F081000070B44FF0000CB0ECB3
:100B7000010A4E1E6446B50831D000BFD0ED000A10
:100B800090ED011A0830B4EEE00AF1EE10FA3CBF25
:100B9000B0EE600A0CF10104F0EC010AB4EEC10AF7
:100BA000F1EE10FA3CBFB0EE410A0CF10204B0ECD9
:100BB000011AB4EEE00AF1EE10FA3CBFB0EE600AA2
:100BC0000CF10304B4EEC10AF1EE10FA3CBFB0EE32
:100BD000410A0CF104046D1E0CF1040CCED106F098
:100BE000030C5FEA0C0617D0B6F1004F19D2002EA5
:100BF000C8BF002510DD00BFD0ED000AF4EEC00A2A
:100C0000F1EE10FA04DD4C19B0EE600AA4EB0C040E
:100C1000001D6D1C761EEFD182ED000A1C6070BCB9
:100C20007047F0EC010AB4EEE00AF1EE10FA3CBFB6
:100C3000B0EE600AA1EB0C04BCF1010CF1D1EBE7C2
:100C40002DE9FF4F2DED108B82B09FEDFEFA0B4684
:100C50001C46DB084FF0000C0CEB030505EB03080A
:100C600008EB030909EB030606EB030A00EBCC07CC
:100C700000EBC60697ED001AD6ED000A0AEB030B4F
:100C800000EBC50500EBCA0A31EE200A71EE601ACE
:100C900095ED002ADAED000A0BEB030E00EBC80815
:100CA00032EE201A00EBCB0B32EE602AD8ED002A90
:100CB000DBED000A00EBC90900EBCE0E99ED003A1E
:100CC0009EED004A72EEA03A72EEE02A73EE040A3C
:100CD00033EE443A70EE636A70EE233A31EE600A06
:100CE00071EE200A33EEA01A73EEE00A87ED001AC7
:100CF000C6ED000A97ED011AD6ED010AD5ED013ACD
:100D000098ED014A31EE206A71EE600A9AED011AFF
:100D100099ED015A73EE814A73EEC13A9BED011AC7
:100D200034EE017A34EE411A9EED014A75EE045A12
:100D300035EE444A36EE475A36EE076A34EEE57A27
:100D400074EEA54A76EE245A76EE644AC7ED015A4F
:100D5000C6ED014A76EE874AC8ED004A76EEC74AEC
:100D6000CBED004A75EE404A35EE000AC8ED014A67
:100D70008BED010A32EE430A32EE032A20EE0F0A0F
:100D800062EE0F4A33EEC42AA4448C4522EE0F3A99
:100D900033EE842A30EEC34A62EE0F3A30EE833AE5
:100DA00031EEC02A31EE800A71EE630A31EE231A69
:100DB00072EEE41A72EEA42A70EE013A30EE410AA5
:100DC000C5ED003A8EED000A32EE200A8AED000AE7
:100DD00032EE600A89ED000A33EE620A85ED010AFF
:100DE00033EE220A8EED010A34EE610A8AED010A21
:100DF00034EE210A89ED010AFFF42EAF082B3FBF24
:100E000002B0BDEC108B04B0BDE8F08F4FF0000CC9
:100E1000CDF804C04FF0010CCDF800C0DDF804C0DF
:100E2000159DAC444FEA8C0505EB0C07CDF804C0CA
:100E300007EB0C094FEA4C0808EB0C0609EB0C0A0F
:100E400002EBCC0C02EBC80802EBC60602EBC505B0
:100E500002EBC70702EBC90902EBCA0A9CED00DAF4
:100E60009CED018AD8ED00CA96ED00CAD5ED00BA16
:100E700097ED00BAD9ED00AADAED008AD8ED017A33
:100E800096ED01AA95ED017AD7ED016A99ED016A17
:100E9000DAED019ADDF800C00CEB0307FD1805EB55
:100EA000030A0AEB030808EB030606EB030B00EB4F
:100EB000CC0900EBC808D9ED000A98ED000A00EB58
:100EC000C70700EBC606D7ED001A96ED001A70EEC4
:100ED000803A0BEB030E70EEC00A31EE810A00EB94
:100EE000C50500EBCB0B31EEC11AD5ED001A9BED19
:100EF000002A00EBCA0A00EBCE0E31EE824A71EEF8
:100F0000C21A9AED002ADEED002A32EE223A32EEC3
:100F1000622A73EEC42A73EE843A30EE435A30EEFE
:100F2000030A33EE803A73EEC0DA89ED003A99EDA8
:100F3000010A98ED013AD7ED013A95ED014A70EEBC
:100F400003EA30EE433A96ED010A9AED01EADEED4E
:100F5000014A33EE809A73EEC03A9BED010A74EEBB
:100F6000005A34EE404A3EEE240A7EEE644A3EEEDB
:100F7000E5EA7EEEA55A79EE40EA39EE009A32EEC5
:100F8000AE0A72EEEE2A75EE89EA35EEC99A7EEE69
:100F9000455AC9ED01EA3EEE055A2BEEADEA67EE81
:100FA00009EA2BEE899A67EE2DDA3EEE2EEA39EE4B
:100FB0006D9A88ED00EA67EEA5DA88ED019A2CEECD
:100FC000809A6CEEA55A27EE800A39EE2D9A35EEFE
:100FD000C00A85ED009A66EE055A85ED010A2AEEF3
:100FE000A20A2AEE855A66EE222A30EE250A8BEDF9
:100FF000000A35EE620A73EEA42A8BED010A31EE87
:10100000420A31EE021A33EEE42A62EE8F3A20EE03
:101010000F0A21EE0F1A22EE0F2A70EEC02A30EED0
:10102000800A71EEC10A71EE811A33EE421A33EE74
:10103000022A34EE633A34EE234A70EE043A30EE7C
:10104000444A01E0F304353F72EE834A72EEC32A4C
:1010500032EE613A32EE210A71EE601A71EE200A28
:101060002DEE232A28EE031A2DEE033A68EE233ADA
:10107000A44432EE011A28EE842A8C4587ED001A2A
:1010800033EE631A29EE843A87ED011A29EE801AAD
:1010900028EE800A32EE011A30EE430A26EEA42A28
:1010A0008EED001A8EED010A2BEE240A26EEA11A0F
:1010B0006BEE211A30EE010A2CEE221A86ED000AA0
:1010C00031EEC20A6AEE221A86ED010A2AEE200AE1
:1010D0006CEE200A31EE000A8AED000A30EEE10AD9
:1010E0008AED010AFFF4D8AEDDF800C00CF1010C66
:1010F000CDF800C063453FF691AEDDF854C04FF621
:10110000FF7404EACC0CCDF854C0072B3FF6A0AD19
:1011100002B0BDEC108B04B0BDE8F08F0FB41CB56D
:10112000074B06AA7B4469460090059800F0E9FA4F
:101130000020694600F0F8FA1CBC5DF814FB0000C2
:10114000010600002DE9F0410E4604460020206211
:101150002046E168884730B3252805D0D4E901212D
:101160009047206A401CF2E7E16820460027884744
:10117000050018D0A5F14100192802D820354FF4F8
:1011800000673246294620462760FFF797F840B1AE
:10119000012804D0F61D26F007060836D8E7361DCC
:1011A000D6E72846DAE7206ABDE8F0812DE9F0416C
:1011B0000646002410687529314616A510D0AFF3F5
:1011C0000080002802DA404213A507E031688A0750
:1011D00001D512A502E0490704D511A5012401E0BB
:1011E000AFF3008000210A2206F1240709E0B0FBDA
:1011F000F2FCB0FBF2F302FB1C00303078541846CE
:10120000491C0028F3D123462A463046BDE8F04168
:1012100000F00BB8000000002D0000002B000000C3
:10122000200000007047704770472DE9F0470D46D9
:1012300099469246044600F124080168880604D5C0
:10124000E06921F01001216000E00120A84201DDE9
:10125000471B00E00027A1697A1902EB0900081A70
:10126000A0612078C00602D42046AFF3008000269B
:1012700008E0D4E901211AF806009047206A401CD2
:10128000761C20624E45F4DB2078C0060AD5204645
:10129000AFF3008006E0D4E9012130209047206AB6
:1012A000401C2062381EA7F10107F4DC07E0D4E9F6
:1012B000012118F805009047206A401C2062281E72
:1012C000A5F10105F3DC2046AFF30080207800068D
:1012D00002D50220BDE8F0870120FBE770472DE929
:1012E000FF4F0C461E464FF0FF378BB0D2E900018E
:1012F000DDF860800A908A46C1F30A5505B93D467B
:101300000021084602F0F6FFBAF1000F00F4400099
:1013100005DA00EB80004FF4400101EA50004FEA8B
:101320009059B9F1010F00DDB9460A9850EA4A0018
:101330000ED044F61050A5F2FF3545432F14B8F1F6
:10134000000F1ED07542291E1EDDC9F100021CE0EF
:10135000B8F1010F4FF0000001D0302103E0F2435B
:1013600005E02154401CB042FBDB30460022002146
:1013700021540B99C1F80880C1E900200FB0BDE8E5
:10138000F08FBD1B6D1CDEE74A4600DA694206A8F5
:1013900000F072FA06AB93E8070003AB83E807009E
:1013A00050460A9900F0D3FB8DE80700A0F50050E5
:1013B0001F3800900398002D09DD42F21F014A46B4
:1013C000084403A90390684600F032FE08E0A0F547
:1013D00000504A461F3803A90390684600F03CFEBF
:1013E0008DE807000004000C03D04FF0FF304108E7
:1013F00000E01046B8F1000F03D00022009215461D
:101400001EE0751E05D400F099F9303262556D1E4C
:10141000F9D5B3460122084302D000227F1C04E024
:101420002078302801D100227F1E002A099786D01B
:101430001DE0112D07DA00F081F9303262556D1C84
:1014400050EA0102F5D1084302D00098C8B10EE07D
:101450000021681E05E0235C625C63542254401E38
:10146000491C8142F7DBAB46A81B401E09900020B7
:1014700004F80B000B98099AC0F80880C0E9002B0B
:101480007CE711264FF0000859E72DE9F04F884618
:101490000446D21D22F0070191B0D1E90001CDE947
:1014A0000A0101F027FC02460B98C00F01D02D2045
:1014B00007E02068810701D52B2002E0202101EA06
:1014C000C000032A099001D0072A05DB03464146E4
:1014D000204600F091F90BE12078800601D5E06903
:1014E00000E00620B8F1650F814606D0B8F1660F1E
:1014F00018D0B8F1670F70D131E00020B9F1110FA9
:10150000009001DB112301E009F101030AAA01A9FE
:101510000CA8FFF7E4FEDDE90C70002609F10105D7
:10152000834647E001204B4600904FF000470AAA4F
:1015300001A90CA8FFF7D3FEDDE90DB00C995D46BB
:10154000002610B909F101000D18B9EB050003D40C
:10155000C0F1FF3609F10105A5EB09002BE0B9F157
:10156000010F01DA4FF001090020B9F1110F0090CD
:10157000484601DD112300E003460AAA01A90CA890
:10158000FFF7ADFEDDE90C704D460026834620785E
:1015900000070AD4AB4500DA5D4601A8012D04DD41
:1015A000411911F8011C302907D04F4502DA17F113
:1015B000040F04DA012082460FE06D1EEEE7002FD3
:1015C00002DCED1B3E4403E0781CA84200DD7D1CDC
:1015D000B81B00F1010A4FF000472078000703D440
:1015E000AA4501DB4FF0FF3A0021B7F1004F0DF1A2
:1015F00043088DF8431024D002202B23002F01DA5A
:101600007F422D230A21021EA0F1010000DC5FB100
:1016100097FBF1FC97FBF1F201FB1C7C17460CF1E8
:10162000300C08F801CDEEE7A8F101000370218825
:10163000090501D5452100E06521A0F1010800F868
:10164000011C09980FA9A1EB0807FF1D00B101209B
:10165000411901EBEA70A1693844081A401EA061E3
:101660002078C00602D42046AFF30080099828B144
:10167000D4E901219047206A401C20622078C006EE
:1016800022D52046AFF300801EE0002E04DBB345D8
:1016900002DD01A8805D00E03020D4E901219047FF
:1016A000206A401C2062761CAAF101005FEA000A51
:1016B0000AD100F03FF8C0680168405CD4E901211C
:1016C0009047206A401C2062281EA5F10105DCDC41
:1016D00007E0D4E9012118F8010B9047206A401C6B
:1016E0002062381EA7F10107F3DC2046AFF300802B
:1016F000032011B043E6000001694A1C026108782A
:10170000704700B58FB0CDE9013100210591054941
:101710007944CDE9031011466846FFF713FD0FB079
:1017200000BD0000E5FFFFFF0A6802F8010B0A6038
:1017300070470000004870474030002030B5B0F1DD
:101740000A024FEA900E71F100034EEA817EB0EB7F
:101750000E0061EB91014FEA101E4EEA017E10EB84
:101760000E0041EB11114FEA102E4EEA016E10EB04
:101770000E0041EB11214FEA104E4EEA014E10EBE4
:101780000E0041EB1141401841F100014FEAD00039
:1017900040EA41704FEAD10110EB80054FEA810425
:1017A00044EA907444EB01046D1944EB0404521BA9
:1017B000A3414FF0000348BF0A3200D530BD401CA2
:1017C00041F1000130BD00001FB584B000200A9C2B
:1017D00006AB04AA02A90094AFF3008018B1DDE9BA
:1017E000020108B010BD0348204000F0E5F80020D9
:1017F0000146F6E70000207C2DE9F0411F46044633
:1018000003260168072A01F4006004DB08B116A56D
:1018100005E016A503E008B115A500E015A521F027
:1018200010002060A069C01EA0610FB1401EA06121
:101830002046AFF300804FB1D4E9012138469047EC
:10184000206A401C2062C01C206206E0206AFAE781
:10185000D4E9012115F8010B9047761EF8D22046F5
:10186000AFF30080BDE8F0814E414E006E616E0026
:10187000494E4600696E66002DE9F04781461646DE
:101880008AB0334878440DC88DE80D00304878445C
:10189000801C03AC0DC884E80D0041F69B30084461
:1018A000372190FBF1F290FBF1F5A5F1800501FBEA
:1018B00012041B3C02D56442012000E00020DFF846
:1018C00090A080460027FA44AAF1BE0A0DE0E00786
:1018D00009D03246684607EB47010AEB810100F068
:1018E000BBFB8DE8070064107F1C002CEFD1184F64
:1018F0007F44AC3F18E0E80714D007EB04100DF16B
:10190000180A90E80E008AE80E00C068F04201D183
:1019100098190890324606A903A800F09DFB03AB76
:1019200083E807006D10641C002DE4D1324669463F
:10193000B8F1000F03A802D000F07AFB01E000F03C
:101940008BFBC9E90001C9F808200AB0BDE8F0879F
:101950005C5A000000487047203000207546FFF7B1
:10196000F9FFAE4605006946534620F0070085465C
:1019700018B020B5FEF7D6FCBDE820404FF00006B9
:101980004FF000074FF000084FF0000B21F0070167
:10199000AC46ACE8C009ACE8C009ACE8C009ACE8AA
:1019A000C0098D46704710B50446AFF3008020464D
:1019B000BDE81040FEF7A1BC10B500F04BF8BDE843
:1019C000104000F041B800004FF0013C50F8042BEB
:1019D00051F8043B9A4221D1A2EB0C03934313EA42
:1019E000CC1317D150F8042B51F8043B9A4215D16F
:1019F000A2EB0C03934313EACC130BD150F8042B46
:101A000051F8043B9A4209D1A2EB0C03934313EA29
:101A1000CC13DBD04FF00000704700BFD01A01BAE2
:101A2000B1FA81F101F0180122FA01F0CB40C1F1C5
:101A30002001DBB2C0B2C01A2CFA01F3D11A9143D3
:101A400011EAC311E6D17047002801D000F058B860
:101A50007047000010B5022803D0410103D50DA145
:101A600012E0002010BD010101D50FA10CE0C10062
:101A700001D511A108E0810001D512A104E04000C8
:101A800001D513A100E0002115A000F03FF80120CE
:101A900010BD0000496E76616C6964204F706572FC
:101AA0006174696F6E000000446976696465204264
:101AB00079205A65726F00004F766572666C6F7799
:101AC00000000000556E646572666C6F7700000060
:101AD000496E657861637420526573756C7400009B
:101AE0005349474650453A2041726974686D6574A0
:101AF000696320657863657074696F6E3A200000D1
:101B000001491820ABBEFEE72600020070B505466D
:101B10000C460A2000E06D1C00F011F835B1287861
:101B20000028F8D102E0641C00F009F814B1207814
:101B30000028F8D1BDE870400A20AFF3008008B556
:101B400069468DF800000320ABBE08BD70475FEA10
:101B5000400C08BF91F0000F4FEA8C234FEAC122DE
:101B600043EA51514FEA1C5018BF00F5F0404FEACC
:101B7000300018BF41F000415FEA6C5C00F0298042
:101B8000BCF1FF3F08BF40F080407047130C06BF18
:101B900012044FF0100C4FF0000C130E04BF120291
:101BA0000CF1080C130F04BF12010CF1040C930F7D
:101BB00004BF92000CF1020CD30F04BF52000CF1D1
:101BC000010C11464FF00002A0F11F00A0EB0C0029
:101BD000704711F0004F08BF704731F000413FF4EB
:101BE000D5AF0B0C06BF09044FF0100C4FF0000CE2
:101BF0000B0E04BF09020CF1080C0B0F04BF090106
:101C00000CF1040C8B0F04BF89000CF1020CCB0FFC
:101C100004BF49000CF1010CCCF12003A0EB0C0037
:101C200022FA03F302FA0CF241EA030100F1010087
:101C3000704720F07F4C80EA030023F07F47ACEB35
:101C4000070303F57C5300F0004003F1FF032DE987
:101C500080494FEA154B09B44FEA144325EA0B4E6D
:101C600024EA03480FF2042606EB132749083E78BE
:101C70005FEA320203FB0667C7F5000707FB06F6BB
:101C80004FEA54374FEAD64606F1020607FB066CC8
:101C9000CCF1005C4FEA1C472CEA074C07FB06F42A
:101CA0000CFB06F504EB15464FEA961634BF0020F0
:101CB0004FF000404FEAD13706FB07FC4FEA1C4CBF
:101CC0000CFB0BF7D21B03FB0CF761EB07010CFBC2
:101CD0000EF7B0EB074072EB17420CFB08F734BF6E
:101CE000A2EB0742B2EB074261EB17414FEA0C440B
:101CF0004FEA910706FB07FC4FEA1C4C0CFB0BF765
:101D0000B0EBC74072EB573203FB0CF734BFA2EBCA
:101D1000C742B2EBC74261EB57310CFB0EF7B0EB99
:101D2000C70072EB57720CFB08F734BFA2EBC70277
:101D3000B2EBC70261EB5771039F4FEA816141EA41
:101D4000921104EBCC044FEAD1374FEA826206FBD2
:101D500007FC42EA90124FEA80604FEA1C4C0CFBF1
:101D60000BF7D21B03FB0CF761EB07010CFB0EF723
:101D7000B0EB074072EB17420CFB08F734BFA2EB45
:101D80000742B2EB074261EB17414FEA8C554FEA2D
:101D9000910704EB9C2406FB07FC4FEA1C4C0CFB50
:101DA0000BF7B0EBC74072EB573203FB0CF734BFB5
:101DB000A2EBC742B2EBC74261EB57310CFB0EF707
:101DC000B0EBC70072EB57720CFB08F734BFA2EB05
:101DD000C702B2EBC70261EB577115EB4C254FEA16
:101DE000816141EA92114FEA82624FEAD13742EAB9
:101DF000901206FB07FC44F100044FEA80604FEAB2
:101E00001C4C0CFB0BF7D21B03FB0CF761EB07011F
:101E10000CFB0EF7B0EB074072EB17420CFB08F718
:101E200034BFA2EB0742B2EB074261EB174115EB5F
:101E30001C154FEA813141EA92414FEA823242EA6F
:101E400090424FEA80304FEA0C7644F1000448EAB1
:101E500003434EEA0B484FF0000EB2EB080C71EB57
:101E6000030724BF624639464EEB0E0E4FF0000BBF
:101E70000018524149414BEB0B0BB2EB080C71EBD4
:101E800003077BF1000B24BF624639464EEB0E0E72
:101E90004FF0000B0018524149414BEB0B0BB2EBDA
:101EA000080C71EB03077BF1000B24BF6246394637
:101EB0004EEB0E0E51EA020718BF46F0010616EB74
:101EC0000E7655F1000254F1000103D5BDE88901F9
:101ED000BDE80088BDE88901BDE80048B619524157
:101EE00041EB0101A3F10103704780807F7E7D7C7F
:101EF0007B7A7978777676757473727171706F6E9C
:101F00006E6D6C6C6B6A6A69686867666665646446
:101F1000636362616160605F5F5E5E5D5D5C5C5BD0
:101F20005B5A5A595958585757565655555554543F
:101F3000535352525251515050504F4F4F4E4E4D9D
:101F40004D4D4C4C4C4B4B4B4A4A4A4949494848E9
:101F50004847474747464646454545444444444329
:101F600043434342424242414141002B26D4770041
:101F700021D01CB54FEA370703B44FF010004FF0E3
:101F8000100102F0B7F90FBCBDE810400BF1010BD6
:101F9000BBF1010F08BF5FEA170722BF12F1010270
:101FA00011F101014FF0004143F1000300F0004046
:101FB00043EA00007047F9D35708DAE746EA0646D5
:101FC00013F1400F4FEA16461FDD13F1200FDFBF5C
:101FD00016430A46002120335B42C8D0C3F12007D4
:101FE00046EA064602FA07F74FEA164646EA0706A9
:101FF000C3F1200722FA03F201FA07F721FA03F1ED
:102000004FF0000342EA0702B1E746EA020646EA59
:1020100006464FEA164646EA0106BCBF46EA0646B1
:10202000360C4FF000034FF000024FF000019EE726
:102030002DE9C048934630B491E8380007C831EA2A
:10204000400C48BF34EA430C03D5FFF7F2FDFFF71D
:102050008CFFF0BCBDE800882DE9C048934630B441
:1020600091E8380007C810F0804F08BF13F0804F88
:1020700003D100F005F8FFF778FFF0BCBDE8008859
:1020800020F07F4780EA030023F07F4C07EB0C032E
:10209000A3F57C5300F00040A3F1FE0392F0000F83
:1020A00000F0B38095F0000F00F077802DE9014932
:1020B0004FEA11404FEA144621EA004800FB06FCB3
:1020C00024EA064708FB06F607FB08F800FB07F7BB
:1020D00018EB06484CEB164C4FEA124B18EB07482E
:1020E0004FEA15464CEB174022EA0B4E0BFB06FC61
:1020F00025EA06470EFB06F607FB0EFE0BFB07F76D
:102100001EEB064E4CEB164C4FF000061EEB074E36
:102110004CEB174B18EB0B0840F1000018EB0E0BC3
:1021200058EB000840F100008F1A4FF000013CBF4F
:10213000C943661B14BFB5EB040C00213CBFC94367
:10214000F61B4FEA17444EEA8E0E27EA04454FEA83
:102150001C4704FB07622CEA074C05FB07F70CFB46
:1021600005F604FB0CFC16EB074642EB174216EB98
:102170000C4642EB1C421BEB060658EB02024141A7
:1021800046EA9E0601D5BDE80189B619524141EBE8
:102190000101A3F10103BDE801894FEA14454FEAAB
:1021A000114724EA054621EA074C05FB07F406FB24
:1021B00007F70CFB06F105FB0CFC11EB074144EBA8
:1021C00017444FEA124711EB0C4144EB1C4422EA3E
:1021D000074C05FB07F206FB07F70CFB06F605FBB1
:1021E0000CFC16EB074642EB174216EB0C4642EB93
:1021F0001C456A1854F1000148BF7047B619524196
:1022000041EB0101A3F10103704795F0000F37D0B6
:102210004FEA11424FEA144721EA024624EA074CEA
:1022200002FB07F106FB07F70CFB06F402FB0CFCB4
:1022300014EB074441EB17414FEA154714EB0C44EC
:1022400041EB1C4125EA074C02FB07F506FB07F7AB
:102250000CFB06F602FB0CFC16EB074645EB17459C
:1022600016EB0C4645EB1C42121951F1000148BF18
:102270007047B619524141EB0101A3F101037047C8
:102280004FEA14454FEA114724EA054621EA074C74
:1022900005FB07F106FB07F70CFB06F24FF0000603
:1022A00005FB0CFC12EB074241EB174112EB0C4211
:1022B00051EB1C4148BF7047921841EB0101A3F15B
:1022C0000103704721B1826842F00102826003E09D
:1022D000826822F001028260704710B50121080275
:1022E00000F05EFA00214FF4807000F059FA10BD42
:1022F0000146C86C80B270470246002013680B404C
:102300000BB1012000E000207047000030B502460C
:10231000002000235068104C20400D790C6844EADE
:1023200005242043506090680C4C2040D1E90354B0
:102330002C438D682C434D7944EA4504204390603A
:10234000D06A20F470000C7D641EE4B2234340EA9E
:102350000350D06230BD0000FFFEFFFCFDF7FFC060
:10236000F0B504460D4600200021092D11DDE0687E
:10237000A5F10A0606EB4607072606FA07F1884389
:10238000A5F10A0606EB460603FA06F10843E060EB
:102390000CE0206905EB4507072606FA07F188439C
:1023A00005EB450603FA06F108432061072A0FDA18
:1023B000606B561E06EB86071F2606FA07F1884358
:1023C000561E06EB860605FA06F10843606322E016
:1023D0000D2A0FDA206BD61F06EB86071F2606FA9A
:1023E00007F18843D61F06EB860605FA06F1084377
:1023F000206310E0E06AA2F10D0606EB86071F26B7
:1024000006FA07F18843A2F10D0606EB860605FAE7
:1024100006F10843E062F0BD816841F080418160CF
:10242000704708B51C208DF8000000208DF80100D1
:1024300001208DF802008DF80300684600F044F991
:1024400008BDF0B50A4600210023002400BF3DE08E
:10245000012505FA01F3156805EA03049C4234D10D
:1024600005684F000326BE40B543056015794E0050
:10247000B5400668354305601579012D02D0157900
:10248000022D16D185684F000326BE40B5438560F6
:1024900055794E00B540866835438560456801260C
:1024A0008E40B5434560456896798E40B6B2354357
:1024B0004560C5684F000326BE40B543C560D57969
:1024C0004E00B540C6683543C560491C1029BFD3CE
:1024D000F0BDF0B5002300244D07ED0E02FA05F320
:1024E000CE1000F1200555F826504E07F70E0F26A6
:1024F000BE40B543CF1000F1200646F82750CE105D
:1025000000F1200555F8265045EA0304CE1000F1ED
:10251000200545F82640F0BD0246002013690B4017
:102520000BB1012000E0002070474FF6FF71016001
:102530000021017141718171C171704710B500F0C6
:1025400033F84FF4165000F06FF80548006840F07B
:10255000020003490860FFF764FF00F01BFD10BD97
:10256000140402400EB50121084600F0F9F80020DD
:10257000ADF80000ADF8020040F2B7300190002045
:10258000ADF808008DF80A0069464FF0804000F071
:10259000E1FA0121880700F0B6FA012211469007FE
:1025A00000F0CEFA0EBD000000B589B0012108028E
:1025B00000F0E6F80121042000F0C2F801A8FFF7BE
:1025C000B4FF0120019003208DF8080000208DF851
:1025D0000B0001A91248FFF734FFFFF77EFE002031
:1025E0000790039001208DF81100002006900590BF
:1025F00001208DF8200000208DF8100003A9094863
:10260000FFF784FE01210748FFF75CFE0623012245
:102610000A210448FFF7A4FEFFF7A4FF09B000BD9C
:10262000000802400020014010B586B00446012198
:10263000022000F085F8C020049002208DF81400DC
:1026400000208DF8160001208DF8170003208DF86A
:10265000150004A91448FFF7F4FE072206211248CA
:10266000FFF737FF072211460F48FFF732FF01211E
:10267000102000F085F800940020ADF80C000C202C
:10268000ADF80A000020ADF80800ADF80600ADF87E
:1026900004006946054800F0C1FA0121034800F032
:1026A000B1FA06B010BD0000000402400010014065
:1026B00000F01F0201219140024A430942F8231011
:1026C0007047000080E100E070B5002100230F2278
:1026D000C4781CB3174C246804F4E064C4F5E064C7
:1026E000C4F30721C1F10404E3B20A4144789C40D9
:1026F000E1B28478144021430C07210E0E4C05787A
:102700006155047804F01F050124AC4005786D1173
:10271000AD0005F1E025C5F8004109E0047804F0BA
:102720001F050124AC40054D0678761145F826407A
:1027300070BD00000CED00E000E400E080E100E08E
:1027400029B1064A12680243044B1A6004E0034AA6
:1027500012688243014B1A60704700003038024013
:1027600029B1064A12680243044B1A6004E0034A86
:1027700012688243014B1A607047000040380240E3
:1027800029B1064A12680243044B1A6004E0034A66
:1027900012688243014B1A607047000044380240BF
:1027A00029B1064A12680243044B1A6004E0034A46
:1027B00012688243014B1A607047000024380240BF
:1027C000F0B5002100220024022500260223324F0A
:1027D0003F6807F00C0121B1042905D0082937D141
:1027E00005E02E4F076036E02D4F076033E02A4F9B
:1027F0003F1F3F68C7F38056274F3F1F3F6807F0D2
:102800003F036EB1264FB7FBF3F7DFF88CC0ACF196
:10281000040CDCF800C0CCF3881C07FB0CF40CE0C3
:102820001E4FB7FBF3F7DFF870C0ACF1040CDCF817
:1028300000C0CCF3881C07FB0CF4174F3F1F3F6808
:10284000C7F301477F1C7D00B4FBF5F7076002E08A
:10285000124F076000BF00BF0F4F3F6807F0F00145
:102860000909104F7A5C0768D74047600A4F3F68F4
:1028700007F4E051890A0B4F7A5C4768D7408760BC
:10288000054F3F6807F46041490B064F7A5C476883
:10289000D740C760F0BD0000083802400024F400B3
:1028A00000127A00100000200CB50020019000906A
:1028B0003448006840F480303249086000BF314835
:1028C000006800F4003000900198401C01900098CE
:1028D00018B90198B0F5A06FF1D12A48006800F44A
:1028E000003010B10120009001E00020009000981D
:1028F000012846D123484030006840F080502149EB
:10290000403108602048006840F480401E4908605B
:102910001C48083000681B490831086008460068F8
:1029200040F4004008600846006840F4A050086089
:102930001648091F0860081F006840F08070091FD2
:10294000086000BF0F48006800F000700028F9D050
:1029500040F205600E4908600A480830006820F01F
:1029600003000849083108600846006840F002008A
:10297000086000BF03480830006800F00C00082819
:10298000F8D10CBD003802400070004010544007E0
:10299000003C02401CB501210220FFF7D1FE0020BF
:1029A0008DF806000120009000208DF80400012021
:1029B0008DF8070003208DF8050069460148FFF7F0
:1029C00040FD1CBD000402401CB501210220FFF7A0
:1029D000B7FE00208DF806000220009001208DF83F
:1029E00004008DF8070003208DF8050069460448AF
:1029F000FFF727FD00200249143108601CBD0000CC
:102A00000004024010B51548006840F470001349F6
:102A100008601348006840F0010011490860002078
:102A20000F49083108600E4800680E4908400C49FB
:102A300008600D48091D0860081F006820F4802008
:102A4000091F0860002006490C310860FFF72CFFC1
:102A50004FF0006001498039086010BD88ED00E04A
:102A600000380240FFFFF6FE1030002410B52DEDB7
:102A7000088B84B00121880700F051F8A8B3012128
:102A8000880700F03DF80A2000F072FA044600F0D2
:102A9000FEFE41EC1B0B9FED170B53EC102B00F0CF
:102AA000C9FF41EC1A0B9FED130B53EC102B00F0F8
:102AB00023FD41EC190B00F097FA08EE100A18EE0E
:102AC000100A01F0B9FA41EC190B53EC192B0BA1C8
:102AD00001A8FEF723FB01A800F07EF8BCEEC80AAF
:102AE00010EE101A88B200F0CDF904B0BDEC088BDE
:102AF00010BD00000000000000FE9F4025660A0097
:102B0000CA430282704721B1028842F0010202806A
:102B100004E002884FF6FE731A400280704730B519
:102B20000246002000230024158A05EA0103958946
:102B300005EA010413B10CB1012000E0002030BD12
:102B40001AB183890B43838102E083898B4383819C
:102B50007047000000220288184B98420ED0184B94
:102B600098420BD0B0F1804F08D0164B984205D058
:102B7000154B984202D0154B984204D14FF68F73F3
:102B80001A404B881A43124B984207D0114B984277
:102B900004D04FF6FF431A400B891A4302804B685A
:102BA000C3620B880385054B984202D0044B9842C0
:102BB00001D18B7A03860123838270470000014094
:102BC000000401400004004000080040000C0040E8
:102BD000001000400014004010B504460CE000BF97
:102BE0000748008800F040000028F9D02178044808
:102BF00000F07CF814F8010B20780028EFD110BD0C
:102C00000010014021B1828942F40052828104E027
:102C100082894DF6FF731A40828170472DE9FF4784
:102C200005460E460024A14600BFA0462C8A24F487
:102C30004054F08804432C82AC8941F20C608443F8
:102C4000B08831890843718908430443AC81AC8A58
:102C500024F44074B0890443AC826846FFF7B0FDA9
:102C60002048854202D02048854202D1DDF80C90F0
:102C700001E0DDF80890A88900F4004040B109EBBC
:102C8000C90000EB091031684900B0FBF1F707E01B
:102C900009EBC90000EB091031688900B0FBF1F7BE
:102CA0006420B7FBF0F004012009642101FB1078D7
:102CB000A88900F4004040B1322000EBC800B0FB0E
:102CC000F1F000F00700044308E0322000EB0810A8
:102CD0006421B0FBF1F000F00F0004432C81BDE84B
:102CE000FF8700000010014000140140C1F30802FA
:102CF0008280704703B401984100009850EAC120D7
:102D000018BF04204A0D18BF40F0010040F2FF72C6
:102D1000B2EB515F08BF40F00200012808BF052058
:102D200002B0704710B50123002209490948FDF798
:102D300075FE4FF4806208490548FDF705FB012048
:102D40000649087000F00EF80549086010BD000043
:102D5000200000204844000820200020040000201B
:102D60000C00002070B52DED048B84B000254FF4CD
:102D7000806008EE900A00262F480078002856D080
:102D80002EA0FFF729FF00F071F8044622462DA17E
:102D90006846FEF7C3F96846FFF71EFF9FED2B8AD2
:102DA00018EE100A01F048F941EC190B53EC192BFD
:102DB00027A16846FEF7B2F96846FFF70DFF00EE5F
:102DC000104AB8EE400A28EE000AF8EE680A80EED3
:102DD000201ABCEEC10A10EE106A324619A16846EC
:102DE000FEF79CF96846FFF7F7FE1BA0FFF7F4FE1D
:102DF00018E01B4800EB850090ED000A10EE101A59
:102E0000084601F019F941EC190B53EC192B15A1E7
:102E10006846FEF783F96846FFF7DEFE12A0FFF76B
:102E2000DBFE6D1CB5F5806FE3D300BFFEE73046D7
:102E300004B0BDEC048B70BD04000020092D2D2DC5
:102E40002D0A00000925640A0000000000442C47F8
:102E50000925660A00000000092D2D2D2D2D0A00E0
:102E600020200020256600000A0000001CB501ABF0
:102E70006A464FF480610248FDF776FE01981CBD5A
:102E80002020002010B52DED028BB0EE408A1548B1
:102E9000007810B1BDEC028B10BD134813490988AE
:102EA00000EB810080ED008A10480088401C0F492B
:102EB00008809FED0F0A0C48098800EB810080ED27
:102EC000000A0A480088401C084908800846008813
:102ED000B0F5006F04DB1C20FFF7EAFBFFF722FFD1
:102EE00000BFD7E7040000202000002000000020E1
:102EF000000000000EB50024FFF766FDFFF74AFD55
:102F000000BF01211448FFF707FB0446002CF8D04E
:102F1000FFF714FB11A0FFF75FFE0F4814300068A5
:102F200040F002000C491431086013E00D480078AD
:102F300068B1FFF717FF0C49086008460BA102684B
:102F40006846FEF7EBF86846FFF746FE02E0002011
:102F500005490860EAE7000000040240537461720A
:102F6000740A0000040000200C00002025640A0000
:102F700010B504460648FFF74FFA00BF0221044887
:102F8000FFF7BAF90028F9D00148FFF7B1F910BDF1
:102F900000200140002007490880074908701C20D4
:102FA000012181404209920002F1E022C2F80011A1
:102FB00000BF7047000000200400002010B5002969
:102FC0000AD00878002807D005487844FEF7FCFCB2
:102FD000002801D0002010BD0248784410BD000038
:102FE000524300004A43000021F00042A2F1605227
:102FF000B2F5801F01F0004328BFD2F17E6C51D999
:10300000F1EE10CA1CF4400F14D15FEAC00C43EA81
:10301000C20202EB507008BF70475FEA4C0C40F1EF
:103020000000DFF880C240F0118728BF20F00100C7
:1030300000F00CBFC30001F0004343EAC20202EB00
:10304000507008BF70471B4248BF4FEA4C0C1CF43D
:10305000000F08BF401CDFF84CC200F0F7BEC300F1
:1030600001F0004343EAC20202EB507204BF104673
:1030700070471B4248BF4FEA4C0C1CF4000FDFF8AE
:1030800024C218BF104640F0E18608BF521C12F45B
:10309000000F08BF104600F0D98621F0004201F071
:1030A000004330E050EA410C04BF084670475FEA35
:1030B000125CBCF1FE0F1ED1F1EE10CA1CF4400FE1
:1030C000CDD15FEAC00C9BD05FEA001C4FEAC20C76
:1030D0004CEB507C04BFC2002CEAD27C1CF4000FE5
:1030E00004BF4CEA0300DFF8BCC100F0AF8621F05A
:1030F0000042A2F16052B2F5801F4FEA410C2ADB78
:103100001CF5001F16D2F1EE10CA1CF4806F06D019
:103110002CF0005C4CF0805CA1F140612AE04FF0A3
:103120007F40DFF884C143EA500000F08FBE0846BC
:1031300001F03DB870B500F0BDFB00BF000000B964
:1031400088000004FFF7F3BF21F0704243EA50709B
:1031500040EAC2007047F1EE10CA2CF0805C4CF0DF
:10316000005C1CF4006F25D04B00B3F5001F51D359
:1031700001F140611CF4400F40F07E800CF0405C97
:10318000C3004CF0880C11D05CF0404C10F0805F14
:103190000CD0034610F1005041F10001020108BFBC
:1031A00020F00050834218BF2CF0004C00F060402B
:1031B00001F00BB91CF4400F1AD01B4248BF4FEA74
:1031C0004C0C1CF4000F13D112F1406248BF22F0E6
:1031D0007F424FEAC00CBCF1010F43EAC20242EB4E
:1031E00050704FF0880228BF42F0804200F0E4BFE8
:1031F00012F1406248BF22F07F425FEAC00C43EA0E
:10320000C20242EA50704FF0880218BF42F04042BA
:1032100000F0D2BF01F0004321F00041094214D078
:10322000B1FA81FCACF10B0CCCF1200201FA0CF1EB
:1032300020FA02F241EA02014FEA0C5200FA0CF0C5
:10324000A1EB020181EA03010FE0B0FA80F200FA7B
:1032500002F002F115024FEAD0214FEA0252A1EB2F
:1032600002014FEA405081EA0301F1EE10CA2CF04E
:10327000805C4CF0005C7BE762460CF0405CC30075
:103280004CF0880C92D05CF0404C094248BF520090
:1032900012F4000F8AD110F1005041F100012CF01E
:1032A000004C83D1880000408800001010B5DFF882
:1032B00040E211F5801C13F580141EEA4C0F18BF74
:1032C0001EEA440F00F0C88091EA030F48BF83F064
:1032D000004300F1C483841A71EB030C05D2121968
:1032E00043EB0C03001B61EB0C014FEA1154A4EB00
:1032F000135C23EA6E0321EA045143F48013DCF1EA
:10330000200E53D322FA0CFE10EB0E0023FA0CFE13
:1033100041EB0E01CCF1200E03FA0EFE10EB0E0075
:1033200051F10001B1F5801FCCF1200E53D201EB19
:10333000045112FA0EF2BDE8104008BF7047F1EEDA
:1033400010CA1CF4400F1ED14FF0110C92F0000F68
:103350004CF0804C40F17A85401C38BF5FEA420255
:1033600040F07485002814BF20F0010041F10001F5
:103370004FEA410313F5001F24BF4CF0805CA1F11C
:10338000C04100F063BD11F0004F54BF1CF4000FAA
:103390001CF4800F4FF0110C4CF0804C40F056851F
:1033A000401CC0F0538541F10001E1E7012A43EBE5
:1033B0000302ACF1200CDCF11F0E32BF4FF0000E07
:1033C00023FA0CF310EB030041EB0451B4EB115F53
:1033D000AFD0A1EB045101F5801149085FEA30003C
:1033E00002FA0EF242EA420201EB04515FEA3202B3
:1033F00013D0BDE81040F1EE10CA1CF4400F1AD1F2
:103400004FF0110C92F0000F4CF0804CB0D5401CE6
:1034100038BF5FEA4202ABD1A4E7BDE810404FEAF3
:10342000410313F5001F38BF7047DFF8C8C0A1F192
:10343000C04100F00BBD11F0004F54BF1CF4000F51
:103440001CF4800F4FF0110C4CF0804C90D1401CBC
:103450008ED341F100018BE74EF4001E3EEA410499
:1034600018BF3EEA430439D091EA030F48BF83F006
:10347000004300F1EF83841A71EB030C05D212199B
:1034800043EB0C03001B61EB0C0152EA430E4FEAC5
:103490001154A4EB135C13D05FEA445E21EA04519B
:1034A0001CBF23F00043ACF1010C7FF428AFBDE852
:1034B00010404FF0110C801841EB030100F0B1BB3C
:1034C0005FEA445EBDE8104018BF704750EA410C07
:1034D00008BF70474FF0110C00F0A3BBBDE81040CF
:1034E00070B500F0E7F900BF64FBBE3E11000004B8
:1034F0000000C0FF110000102DE9C04130B4DFF81A
:1035000064C33CEA111418BF3CEA131400F04B8169
:1035100081EA03051CEA111444EAD57418BF1CEAB9
:10352000131500F01D81A4EB05044FF0004545EA9A
:10353000C12145EAC32341EA505143EA525304F101
:103540007F74994204F500344FEAC0204FEAC2224A
:1035500008BF904200F0D0804FEA13650FF20426B6
:10356000765D4FEA134506FB05F7C7F1807706FB4A
:1035700007F74FEAD737A7FB03687642C8F58038CC
:10358000A7FB06CE38BFA8F1010807FB08E64FF0FD
:10359000000EA6FB028CE6FB03CEDCF1000CCEF1A4
:1035A000004E38BFAEF1010EA6FB0C584FF00007DD
:1035B0004FF00005E6FB0E87A1FB08C6A0FB07CE77
:1035C00016EB0E0645F10005E1FB076515F1E04E2F
:1035D0007EBFA4F580345FEA46066D4116F1800790
:1035E000F1EE10CA45F100054FEA172747EA0567D3
:1035F0001CF4400F4FEA152536D14FEA4666A6F176
:103600005E46B6F1085F2FD9B4F1FE6F2CD838466C
:1036100024F0010C05EBC471BCF1FE6F01EB0C1141
:10362000DFF844C202D8F0BCBDE8004140F20E848D
:1036300024425CBF01F5801E9EEAC47F02D4F0BC28
:10364000BDE8004140F10284244277D4DFF81CC277
:1036500056EA080EA1F1C04118BF4CF0804CF0BCF6
:10366000BDE8004100F0F2BB4FEAD22242EA4352E9
:103670004FEAD323A7FB02864FEAD02040EA41500D
:1036800007FB03661EEA0E0F4FEAD12105FB026617
:1036900058BFA6EB0056B6EB00564FEA520E4EEA64
:1036A000C37E18EB0E0E56EB530E05D518EB020831
:1036B0005E417F1C55F1000556EA080E24D01CF42B
:1036C000400FA4D014F0010F18BF4FEA4C0C1CF4AB
:1036D000000F08D036429AD4B8EB02089E417F1EF4
:1036E00075F1000593E7364291D518EB02085E416B
:1036F0007F1C55F100058AE74FF480154FF0000755
:103700004FF000064FF0000824F0010C384605EB9E
:10371000C471BCF1FE6F01EB0C1102D8F0BCBDE826
:1037200000811CEA0C0F5CBF01F5801E9EEAC47F7D
:1037300002D4F0BCBDE80081244287D556EA080CCB
:1037400001F1C0411CBF06F0004C4CF0804C4CF025
:10375000005CF0BC4CF0140CBDE8004100F0B8BABD
:1037600050EA410E0CEA13150BD052EA430E13D067
:1037700000F021F9641B86EA4606240444EAD67464
:10378000D3E652EA430E00F02680F0BC81EA030142
:1037900001F00041BDE80081F0BCBDE80041DFF868
:1037A000D0C000F053BBF0BCBDE8004170B500F0E4
:1037B00081F800BF097EFC3E1400000400F007B849
:1037C00081EA03014FF0000001F00041704781EAF7
:1037D000030100F028B9F0BCBDE800415FF828C043
:1037E00000F034BBFFFDFBF9F7F5F4F2F0EEEDEB82
:1037F000E9E8E6E4E3E1E0DEDDDBDAD8D7D5D4D3EF
:10380000D1D0CFCDCCCBCAC8C7C6C5C4C2C1C0BF3A
:10381000BEBDBCBBBAB9B8B7B6B5B4B3B2B1B0AF40
:10382000AEADACABAAA9A8A8A7A6A5A4A3A3A2A124
:10383000A09F9F9E9D9C9C9B9A99999897979695DF
:1038400095949393929191908F8F8E8E8D8C8C8B7B
:103850008B8A898988888787868585848483838203
:10386000828181800000FF071400004014000010D6
:1038700014000008B1FA81F201FA02F1C2F11D024E
:103880004FEA415003EB025303EBD1217047B0FAEA
:1038900080F310FA03F10AD0C3F11D0303F580632E
:1038A0004FEA41504FEA035202EBD12170474FF0EB
:1038B000000070470EF1020E2EF0030E01285EF894
:1038C000086B41EB010414F5001418BFB4F5801F18
:1038D00023D3364208D4012A43EB030515F500151E
:1038E00018BFB5F5801F18D301EB010C1CF5801F24
:1038F00016D2364204D403EB030C1CF5801F0FD202
:10390000002C10D14FEAD17C002D0CEB4C0C0CF1AB
:10391000020C08BF4CEBD37C07E04FF0090C04E02D
:103920004FF0080C01E04FEAD37C0CEB4C0526FA73
:1039300005F606F00706B6F1040C06D20EEB860C6F
:10394000BDE870404CF0010C6047DFE80CF0222429
:1039500013025EF804CC1B2D08D1002C88BFB4F5EF
:10396000801F34BF4CF4804C4CF4004CBDE87040D8
:1039700000F06CBA002C88BFB4F5001F24BF1946B4
:10398000104670BD4FF000004FF00041A1F500213E
:1039900070BD19461046012851EB010418BFD4F53B
:1039A000001484BF5EF804CC2CF0806CBDE870403D
:1039B00000F22B82704780B54FF003065C004FEA9F
:1039C00003334FEA3606640D4FEA133318BF43F44E
:1039D00080131CD153EA125E04F1010402BF1346A6
:1039E0000022203C1B4202BF130B1205143CB3FA09
:1039F00083FEAEF10B0ECEF1200C03FA0EF322FA89
:103A00000CFC02FA0EF2A4EB0E0443EA0C030FB412
:103A100016F0010F0CBC03BC18BF2546CED180BDEB
:103A200080B50126F3E70808A0F500114FEA31013F
:103A30007047000010B5DFF894E211F5801C13F513
:103A400080141EEA4C0F18BF1EEA440F00F0F380EA
:103A500091EA030F48BF83F000433FF53CAC841A62
:103A600071EB030C07D212198CF0004C43EB0C03E2
:103A7000001B61EB0C0152424FEA1154A4EB135CA2
:103A800023EAAE0321EA0451C3EBAE0338BF5B1E49
:103A9000DCF1200E48D322FA0CFE10EB0E0043FAA4
:103AA0000CFE41EB0E01CCF1200E03FA0EFE10EBE2
:103AB0000E0051F10001CCF1200E4CD412FA0EF29E
:103AC00001EB0451BDE8104008BF7047F1EE10CA89
:103AD0001CF4400F14D14FF0120C92F0000F4CF078
:103AE000804C40F1B381401C18BFB2F1004F40F050
:103AF000AD8100280CBF491C20F0010000F0A6B9E0
:103B000011F0004F54BF1CF4000F1CF4800F4FF055
:103B1000120C4CF0804C40F09981401C40F0968192
:103B200041F1000100F092B912EB020E43EB0302E7
:103B300018BF4FF0010E4EEA4202ACF1200CDCF14E
:103B40001E0E4BD943FA0CFE10EB0E0051F1FF3163
:103B5000CCF11E0EB2D50EF1010E12FA0EFE40414E
:103B600041EB010101EB445C5FEA5C5C06D95FEA72
:103B70000E0201EB0451BDE81040A5E73BD24FEA2D
:103B8000D42C11F5001124F400641AD0B1FA81F29A
:103B90000B3AA41AA41ED2F12003914030FA03F389
:103BA0001943904001EBCC71002C01EB0451BDE8AE
:103BB0001040A8BF704701F1C0414FF0120C00F057
:103BC00087B8B0FA80F310FA03F101D1BDE81040D4
:103BD00019D0E41A173C4805C90AE3E701EB045180
:103BE000BDE81040401E61F100015FF0FF326BE75D
:103BF00001EB045110BD491001EB0451BDE8104028
:103C00004FEA30000BE0F1EE10CA4FF000010CF467
:103C1000400CBCF5000F08BF4FF0004170474FF05B
:103C2000120C4A0008BF0042EDD0B2F5001F28BFB9
:103C3000704700F0EAB84EF4001E3EEA410418BF97
:103C40003EEA430434D091EA030F48BF83F00043B7
:103C50003FF511AC841A71EB030C07D212198CF0EA
:103C6000004C43EB0C03001B61EB0C0152EA033EDA
:103C70004FEA1154A4EB135C14D05FEA445E21EACE
:103C8000045109D023F000435242ACF1010CC3F1BE
:103C9000000338BF5B1EFBE6BDE81040801A61EBF5
:103CA0000301BCE7BDE8104050EA410CB7D1AAE7D8
:103CB000BDE8104070B5FFF7FDFD00BF40DFF63EE8
:103CC0001100000483F00041104670470000C0FF5F
:103CD000F1EE103A13F0807F1EBF01F0004100208A
:103CE000704713F4006F40F0AA80094248BF4CF4BB
:103CF000803C4FF4C0634FEA115203F1010321EA03
:103D0000025122F400629A1A48BF6FF0FE0241F499
:103D10008011352A3CD830D0152A1ED3203A0CD930
:103D20000028C2F1200321FA02F001FA03F218BFC1
:103D300042F001024FF0000130E0C2F1000302F155
:103D4000200201FA03F120FA02F241EA020100FA2C
:103D500003F208464FF0000120E0C2F1200310B446
:103D600000FA03F401FA03F320FA02F021FA02F157
:103D7000224610BC43EA000010E050EA01324FF046
:103D800000004FF000014FF0004218BF521C05E048
:103D90004FF001024FF000014FF000001CF4803F93
:103DA0002CF4803C18BF41F0004112421ED0F1EECD
:103DB000103A13F4400F20D1520003D30CD0401C12
:103DC00041F10001F1EE103A4CF0804C43F0080351
:103DD000E1EE103A00F03AB85FEAAC72EFD4F1D1FC
:103DE000401C41F1000120F00100EBE71CF0804F86
:103DF00008BF70472CF0004CE4E7094254BF13F4AD
:103E0000000F13F4800FDDD1D9E7F1EE103A13F073
:103E1000807F1EBF01F000410020704713F4006F47
:103E200008BF70472DE9F050FFF7FAFD04F5C064B4
:103E3000A4F10104314301EB0451BDE8F0504CF012
:103E4000005C4CF0800C00F0C0BA00001CF0700F59
:103E500008BF0A460FB4F1EE101A0CF0405030EAD9
:103E6000814318BF4CF0804C4FEA4C0310EA814F5D
:103E70004FEAD36323EA112318BF23F0100341EA6A
:103E8000030101F0E073E1EE101A4CEA030C0CF0B0
:103E90000F030A2B1DBF082B0CF070034CEAC30C58
:103EA0004FF4003304BF33EA0C034CF4400C1CF015
:103EB000005F14D11CF0805F0BD11CF0804F31D11A
:103EC0001CF0006F12D111F4807F0FBC62D000F0A3
:103ED0007CBA11F4806F0FBC2BD000F076BA11F4CD
:103EE000006F0FBC08BF704700F06FBA11F4007F7D
:103EF0000FBC40F06A821CF0400F1EBF4FF0004024
:103F000040F0010070471CF0100F14BF81EA03025B
:103F100042400CF00F000A2808BF4FF0FF324FF06C
:103F2000000326E011F4805F0FBC08BF704700F06B
:103F30004CBAF1EE103A2CF0805C1CF0800F14BFEC
:103F400001F0004200F0004212420CBF12EA336F4F
:103F500012EAF35F0DD31CF0100F1DBF30A003C891
:103F60001143314808BF104313F4805F40F02D82A5
:103F700070471CF0100F02F000421DBF0FF29400BA
:103F800003C81143254808BF104313F4805F40F075
:103F90001C8270471CF0400F40F028801CF4404FFA
:103FA0001BD01CF4004F1CBF194610460CF4807245
:103FB00018BF8CEA520C1CF0800F0CBF40F480003C
:103FC00041F400218CEADC0313F0100F1CBF2CF02D
:103FD0000F0C4CF0080C00F09FB91CF0100F1ABF2A
:103FE00012A393E80300134800F096B91CF0800F69
:103FF00014BF01F0004200F000421CF0100F1BBF84
:104000000AA393E803000B48114308BF104300F0D4
:1040100083B900BF000000000000F07F0000807F37
:10402000FFFFFFFFFFFFEF7FFFFF7F7F000000002C
:104030000000F87F0000C07F43004FEAD30C4FEA36
:104040003C0C43401FBF40070CF1605113F0FE4F82
:1040500070471CF0006F14D133F0004004BF1946C4
:10406000704783EA830383EA430303F0070343EAC9
:10407000CC010CF0004303F15A5303F54013FFF752
:10408000F9BB0CF0004343EA507010B540EACC0095
:1040900000F00FF8000000BA180000044FEA000119
:1040A000FFF7C1BC4FEAE0024FEA407042F0E04146
:1040B00070470EF1020E2EF0030E4FEA40025EF83A
:1040C000084B12F1807218BFB2F5000F22D32442C0
:1040D00007D44FEA410313F1807318BFB3F5000F03
:1040E00018D34FEA400C1CF5000F16D2244204D41A
:1040F0004FEA410C1CF5000F0FD2002A10D14FEAF5
:10410000D07C002B0CEB4C0C0CF1020C08BF4CEBE0
:10411000D17C07E04FF0090C04E04FF0080C01E0FF
:104120004FEAD17C0CEB4C0324FA03F404F00704AF
:10413000B4F1040C06D20EEB840CBDE810404CF038
:10414000010C6047DFE80CF01F2013025EF804CC7E
:104150001B2B08D1002A88BFB2F5000F34BF4CF4E6
:10416000804C4CF4004CBDE81040FFF76FBE002AB5
:1041700088BFB2F1807F28BF084610BD4FF00040D5
:10418000A0F5800010BD0846420018BFD2F1807231
:1041900084BF5EF8042C22F08062BDE8104000F27B
:1041A0008A8070474FF00000E1EE100A7047FF214F
:1041B00041EAD050C0057047F1EE101A11F0807F2F
:1041C0001CBF00F00040704711F4006F40F08E807B
:1041D00000F0004343EAD05323F48073C3F1C103DA
:1041E00023F00041172941D8C3F1200310FA03F14D
:1041F000C3F1200320F07F4040F4000020FA03F0D8
:1042000003F0004340EA030019D00B46F1EE101A08
:1042100041F00801E1EE101A11F4400F1CD15900D1
:1042200009D318BF401C06D17FEAE27398BF401C37
:1042300038BF20F0010042F0804CFFF707BE12F0BB
:10424000804F08BF7047F1EE101A944641F0080104
:10425000E1EE101AFFF7FABD10F0004F14BF5FEA4D
:10426000F1535FEA316338BF401CE4E7182903EBE0
:10427000912318BF6FF000410131F1EE101A41F0A7
:104280000801E1EE101A11F4400F18BF03F00040CE
:10429000E2D168BF03F0004009D6400203F00040BD
:1042A00000F1010004BF12F0004F20F001004FF0B8
:1042B000804CFFF7CBBDF1EE101A11F0807F1CBFD0
:1042C00000F00040704711F4006F08BF704700F025
:1042D000004120F00040B0FA80F3A3F1080341F060
:1042E000C04100FA03F0A1EBC351084442F0005C66
:1042F00000F06BB8064A21EA020120EA0202F1EE60
:10430000100A20EA020282EA0102E1EE102A704756
:1043100060603FF6FDF7B9B80CF00F03092B08BF3A
:10432000082000F064800A2B32D0082B18BF704799
:1043300008BF1CF0400F31D01CF4803F23D11CF08B
:10434000200F11D11CF0100F0BBF02460A466FF070
:1043500000406FF0004118BF4FF0FF3012F0004FE7
:104360001CBFC043C94370471CF0100F0CBF02466E
:104370000A4612F0004F4FF0FF304FF0FF311CBFE4
:10438000C043C94370474FF000004FF00001704731
:104390001CF0400F18BF4FF0004070471CF0100F8A
:1043A00008D020F0704300F07F4242EAD3014FEA88
:1043B0004370704700F0604021F07F4242EA000203
:1043C00001F07F4040EA727070472DE900502DE9FE
:1043D0000050FDF7F9F9BDE80050BDE800500CF0C1
:1043E0000F0393F0090F18BF7047AFF300801CF460
:1043F000801F24D01CF4E02F09D010F0080F02D148
:10440000D0F1020070476FEACC31490070474FF09D
:10441000604111EA407028BF40F04050F1EE103A80
:1044200023F0704343EA0003E1EE103AEFF3008219
:1044300022F0704242EA000282F3008870471CEAD0
:10444000004018BF012070470004000058440008D5
:1044500058640008080700000000803F00000000CA
:10446000C4FE7F3F890FC93B11FB7F3F900E493C43
:10447000E6F47F3FB6C9963C43EC7F3FB00AC93CA7
:1044800029E17F3FB949FB3C98D37F3F2CC3163DC0
:104490008FC37F3F07E02F3D0FB17F3F2FFB483D8C
:1044A000189C7F3F6814623DAB847F3F742B7B3D3B
:1044B000C76A7F3F0A208A3D6D4E7F3F05A9963D22
:1044C0009D2F7F3F8C30A33D580E7F3F80B6AF3D80
:1044D0009DEA7E3FC33ABC3D6DC47E3F36BDC83DBC
:1044E000C99B7E3FB93DD53DB0707E3F2EBCE13DBE
:1044F00023437E3F7638EE3D24137E3F73B2FA3D70
:10450000B1E07D3F0295033ECCAB7D3F86CF093EB7
:1045100074747D3FB708103EAC3A7D3F8340163E31
:1045200073FE7C3FDE761C3EC9BF7C3FB6AB223EAD
:10453000B07E7C3FFCDE283E283B7C3FA2102F3E15
:1045400031F57B3F9840353ECDAC7B3FCF6E3B3E57
:10455000FC617B3F379B413EBE147B3FC2C5473E5B
:1045600016C57A3F60EE4D3E02737A3F0115543E08
:10457000841E7A3F97395A3E9DC7793F135C603E4F
:104580004E6E793F667C663E9812793F7F9A6C3E0C
:104590007BB4783F51B6723EF853783FCCCF783E2B
:1045A00010F1773FE1E67E3EC58B773FC07D823ECE
:1045B0001724773FCE86853E07BA763F938E883E96
:1045C000974D763F07958B3EC6DE753F229A8E3E0D
:1045D000976D753FDD9D913E0BFA743F31A0943E7F
:1045E0002284743F17A1973EDD0B743F86A09A3E4C
:1045F0003F91733F789E9D3E4714733FE59AA03EDE
:10460000F894723FC595A33E5213723F128FA63E97
:10461000578F713FC486A93E0809713FD47CAC3ED8
:104620006680703F3A71AF3E73F56F3FEF63B23E05
:1046300030686F3FEC54B53E9ED86E3F2A44B83E7A
:10464000BE466E3FA031BB3E93B26D3F4A1DBE3E9B
:104650001D1C6D3F1E07C13E5E836C3F15EFC33EC0
:1046600058E86B3F29D5C63E0C4B6B3F53B9C93E4A
:104670007BAB6A3F8B9BCC3EA7096A3FCA7BCF3E90
:104680009165693F095AD23E3CBF683F4136D53EED
:10469000A816683F6B10D83ED86B673F80E8DA3EBB
:1046A000CCBE663F79BEDD3E880F663F4F92E03E4E
:1046B0000B5E653FFA63E33E59AA643F7533E63EFD
:1046C00073F4633FB700E93E5A3C633FBBCBEB3E1C
:1046D0001082623F7994EE3E98C5613FEA5AF13EFE
:1046E000F206613F071FF43E2146603FCBE0F63EF5
:1046F00027835F3F2DA0F93E05BE5E3F275DFC3E50
:10470000BEF65D3FB217FF3E532D5D3FE4E7003F2D
:10471000C7615C3FB142023F1A945B3F3D9C033F3F
:1047200050C45A3F84F4043F6AF2593F824B063F1B
:104730006A1E593F36A1073F5348583F9BF5083F33
:104740002670573FAD480A3FE595563F6B9A0B3FA1
:1047500093B9553FD0EA0C3F31DB543FDA390E3F75
:10476000C3FA533F84870F3F4918533FCDD3103FBF
:10477000C633523FB01E123F3D4D513F2A68133F92
:10478000AF64503F39B0143F1F7A4F3FD9F6153F01
:10479000908D4E3F073C173F029F4D3FC07F183F13
:1047A00079AE4C3F00C2193FF8BB4B3FC6021B3FDE
:1047B0007FC74A3F0C421C3F12D1493FD17F1D3F6A
:1047C000B3D8483F12BC1E3F65DE473FCBF61F3FC4
:1047D0002AE2463FF92F213F03E4453F9967223FF4
:1047E000F5E3443FA99D233F00E2433F25D2243F08
:1047F00029DE423F0A05263F70D8413F5636273F03
:10480000DAD0403F0566283F67C73F3F1594293FF0
:104810001BBC3E3F82C02A3FF9AE3D3F4AEB2B3FD7
:1048200003A03C3F69142D3F3B8F3B3FDE3B2E3FB7
:10483000A47C3A3FA5612F3F4268393FBB85303F9A
:104840001652383F1DA8313F233A373FC9C8323F7F
:104850006C20363FBCE7333FF304353FF304353F6C
:10486000BCE7333F6C20363FC9C8323F233A373F5D
:104870001DA8313F1652383FBB85303F4268393F53
:10488000A5612F3FA47C3A3FDE3B2E3F3B8F3B3F51
:1048900069142D3F03A03C3F4AEB2B3FF9AE3D3F4F
:1048A00082C02A3F1BBC3E3F1594293F67C73F3F4C
:1048B0000566283FDAD0403F5636273F70D8413F43
:1048C0000A05263F29DE423F25D2243F00E2433F2E
:1048D000A99D233FF5E3443F9967223F03E4453F09
:1048E000F92F213F2AE2463FCBF61F3F65DE473FC7
:1048F00012BC1E3FB3D8483FD17F1D3F12D1493F64
:104900000C421C3F7FC74A3FC6021B3FF8BB4B3FD0
:1049100000C2193F79AE4C3FC07F183F029F4D3F08
:10492000073C173F908D4E3FD9F6153F1F7A4F3FFA
:1049300039B0143FAF64503F2A68133F3D4D513F9B
:10494000B01E123FC633523FCDD3103F4918533FDC
:1049500084870F3FC3FA533FDA390E3F31DB543FB0
:10496000D0EA0C3F93B9553F6B9A0B3FE595563F04
:10497000AD480A3F2670573F9BF5083F5348583FC4
:1049800036A1073F6A1E593F824B063F6AF2593FE4
:1049900084F4043F50C45A3F3D9C033F1A945B3F4C
:1049A000B142023FC7615C3FE4E7003F532D5D3FEA
:1049B000B217FF3EBEF65D3F275DFC3E05BE5E3F83
:1049C0002DA0F93E27835F3FCBE0F63E2146603FB6
:1049D000071FF43EF206613FEA5AF13E98C5613F77
:1049E0007994EE3E1082623FBBCBEB3E5A3C633F74
:1049F000B700E93E73F4633F7533E63E59AA643F5E
:104A0000FA63E33E0B5E653F4F92E03E880F663FE0
:104A100079BEDD3ECCBE663F80E8DA3ED86B673FAC
:104A20006B10D83EA816683F4136D53E3CBF683F64
:104A3000095AD23E9165693FCA7BCF3EA7096A3FBA
:104A40008B9BCC3E7BAB6A3F53B9C93E0C4B6B3F53
:104A500029D5C63E58E86B3F15EFC33E5E836C3FD9
:104A60001E07C13E1D1C6D3F4A1DBE3E93B26D3FE9
:104A7000A031BB3EBE466E3F2A44B83E9ED86E3F34
:104A8000EC54B53E30686F3FEF63B23E73F56F3F55
:104A90003A71AF3E6680703FD47CAC3E0809713FEE
:104AA000C486A93E578F713F128FA63E5213723FA4
:104AB000C595A33EF894723FE59AA03E4714733F14
:104AC000789E9D3E3F91733F86A09A3EDD0B743FDA
:104AD00017A1973E2284743F31A0943E0BFA743F95
:104AE000DD9D913E976D753F229A8E3EC6DE753FE5
:104AF00007958B3E974D763F938E883E07BA763F5B
:104B0000CE86853E1724773FC07D823EC58B773F9A
:104B1000E1E67E3E10F1773FCCCF783EF853783F08
:104B200051B6723E7BB4783F7F9A6C3E9812793FC3
:104B3000667C663E4E6E793F135C603E9DC7793F52
:104B400097395A3E841E7A3F0115543E02737A3FCC
:104B500060EE4D3E16C57A3FC2C5473EBE147B3F50
:104B6000379B413EFC617B3FCF6E3B3ECDAC7B3FF4
:104B70009840353E31F57B3FA2102F3E283B7C3FCD
:104B8000FCDE283EB07E7C3FB6AB223EC9BF7C3FF8
:104B9000DE761C3E73FE7C3F8340163EAC3A7D3F82
:104BA000B708103E74747D3F86CF093ECCAB7D3F85
:104BB0000295033EB1E07D3F73B2FA3D24137E3F80
:104BC0007638EE3D23437E3F2EBCE13DB0707E3F04
:104BD000B93DD53DC99B7E3F36BDC83D6DC47E3FC6
:104BE000C33ABC3D9DEA7E3F80B6AF3D580E7F3F45
:104BF0008C30A33D9D2F7F3F05A9963D6D4E7F3F95
:104C00000A208A3DC76A7F3F742B7B3DAB847F3F80
:104C10006814623D189C7F3F2FFB483D0FB17F3FDA
:104C200007E02F3D8FC37F3F2CC3163D98D37F3FB6
:104C3000B949FB3C29E17F3FB00AC93C43EC7F3FC7
:104C4000B6C9963CE6F47F3F900E493C11FB7F3F8E
:104C5000890FC93BC4FE7F3F000000000000803F79
:104C6000890FC9BBC4FE7F3F900E49BC11FB7F3F3B
:104C7000B6C996BCE6F47F3FB00AC9BC43EC7F3F9F
:104C8000B949FBBC29E17F3F2CC316BD98D37F3FB8
:104C900007E02FBD8FC37F3F2FFB48BD0FB17F3F84
:104CA000681462BD189C7F3F742B7BBDAB847F3F33
:104CB0000A208ABDC76A7F3F05A996BD6D4E7F3F1A
:104CC0008C30A3BD9D2F7F3F80B6AFBD580E7F3F78
:104CD000C33ABCBD9DEA7E3F36BDC8BD6DC47E3FB4
:104CE000B93DD5BDC99B7E3F2EBCE1BDB0707E3FB6
:104CF0007638EEBD23437E3F73B2FABD24137E3F68
:104D0000029503BEB1E07D3F86CF09BECCAB7D3FAF
:104D1000B70810BE74747D3F834016BEAC3A7D3F29
:104D2000DE761CBE73FE7C3FB6AB22BEC9BF7C3FA5
:104D3000FCDE28BEB07E7C3FA2102FBE283B7C3F0D
:104D4000984035BE31F57B3FCF6E3BBECDAC7B3F4F
:104D5000379B41BEFC617B3FC2C547BEBE147B3F53
:104D600060EE4DBE16C57A3F011554BE02737A3F00
:104D700097395ABE841E7A3F135C60BE9DC7793F47
:104D8000667C66BE4E6E793F7F9A6CBE9812793F04
:104D900051B672BE7BB4783FCCCF78BEF853783F23
:104DA000E1E67EBE10F1773FC07D82BEC58B773FC6
:104DB000CE8685BE1724773F938E88BE07BA763F8E
:104DC00007958BBE974D763F229A8EBEC6DE753F05
:104DD000DD9D91BE976D753F31A094BE0BFA743F77
:104DE00017A197BE2284743F86A09ABEDD0B743F44
:104DF000789E9DBE3F91733FE59AA0BE4714733FD6
:104E0000C595A3BEF894723F128FA6BE5213723F8F
:104E1000C486A9BE578F713FD47CACBE0809713FD0
:104E20003A71AFBE6680703FEF63B2BE73F56F3FFD
:104E3000EC54B5BE30686F3F2A44B8BE9ED86E3F72
:104E4000A031BBBEBE466E3F4A1DBEBE93B26D3F93
:104E50001E07C1BE1D1C6D3F15EFC3BE5E836C3FB8
:104E600029D5C6BE58E86B3F53B9C9BE0C4B6B3F42
:104E70008B9BCCBE7BAB6A3FCA7BCFBEA7096A3F88
:104E8000095AD2BE9165693F4136D5BE3CBF683FE5
:104E90006B10D8BEA816683F80E8DABED86B673FB3
:104EA00079BEDDBECCBE663F4F92E0BE880F663F46
:104EB000FA63E3BE0B5E653F7533E6BE59AA643FF5
:104EC000B700E9BE73F4633FBBCBEBBE5A3C633F14
:104ED0007994EEBE1082623FEA5AF1BE98C5613FF6
:104EE000071FF4BEF206613FCBE0F6BE2146603FED
:104EF0002DA0F9BE27835F3F275DFCBE05BE5E3F48
:104F0000B217FFBEBEF65D3FE4E700BF532D5D3F25
:104F1000B14202BFC7615C3F3D9C03BF1A945B3F37
:104F200084F404BF50C45A3F824B06BF6AF2593F13
:104F300036A107BF6A1E593F9BF508BF5348583F2B
:104F4000AD480ABF2670573F6B9A0BBFE595563F99
:104F5000D0EA0CBF93B9553FDA390EBF31DB543F6D
:104F600084870FBFC3FA533FCDD310BF4918533FB7
:104F7000B01E12BFC633523F2A6813BF3D4D513F8A
:104F800039B014BFAF64503FD9F615BF1F7A4F3FF9
:104F9000073C17BF908D4E3FC07F18BF029F4D3F0B
:104FA00000C219BF79AE4C3FC6021BBFF8BB4B3FD6
:104FB0000C421CBF7FC74A3FD17F1DBF12D1493F62
:104FC00012BC1EBFB3D8483FCBF61FBF65DE473FBC
:104FD000F92F21BF2AE2463F996722BF03E4453FEC
:104FE000A99D23BFF5E3443F25D224BF00E2433F00
:104FF0000A0526BF29DE423F563627BF70D8413FFB
:10500000056628BFDAD0403F159429BF67C73F3FE8
:1050100082C02ABF1BBC3E3F4AEB2BBFF9AE3D3FCF
:1050200069142DBF03A03C3FDE3B2EBF3B8F3B3FAF
:10503000A5612FBFA47C3A3FBB8530BF4268393F92
:105040001DA831BF1652383FC9C832BF233A373F77
:10505000BCE733BF6C20363FF30435BFF304353F64
:105060006C2036BFBCE7333F233A37BFC9C8323F55
:10507000165238BF1DA8313F426839BFBB85303F4B
:10508000A47C3ABFA5612F3F3B8F3BBFDE3B2E3F49
:1050900003A03CBF69142D3FF9AE3DBF4AEB2B3F47
:1050A0001BBC3EBF82C02A3F67C73FBF1594293F44
:1050B000DAD040BF0566283F70D841BF5636273F3B
:1050C00029DE42BF0A05263F00E243BF25D2243F26
:1050D000F5E344BFA99D233F03E445BF9967223F01
:1050E0002AE246BFF92F213F65DE47BFCBF61F3FBF
:1050F000B3D848BF12BC1E3F12D149BFD17F1D3F5C
:105100007FC74ABF0C421C3FF8BB4BBFC6021B3FC8
:1051100079AE4CBF00C2193F029F4DBFC07F183F00
:10512000908D4EBF073C173F1F7A4FBFD9F6153FF2
:10513000AF6450BF39B0143F3D4D51BF2A68133F93
:10514000C63352BFB01E123F491853BFCDD3103FD4
:10515000C3FA53BF84870F3F31DB54BFDA390E3FA8
:1051600093B955BFD0EA0C3FE59556BF6B9A0B3FFC
:10517000267057BFAD480A3F534858BF9BF5083FBC
:105180006A1E59BF36A1073F6AF259BF824B063FDC
:1051900050C45ABF84F4043F1A945BBF3D9C033F44
:1051A000C7615CBFB142023F532D5DBFE4E7003FE2
:1051B000BEF65DBFB217FF3E05BE5EBF275DFC3E7B
:1051C00027835FBF2DA0F93E214660BFCBE0F63EAE
:1051D000F20661BF071FF43E98C561BFEA5AF13E6F
:1051E000108262BF7994EE3E5A3C63BFBBCBEB3E6C
:1051F00073F463BFB700E93E59AA64BF7533E63E56
:105200000B5E65BFFA63E33E880F66BF4F92E03ED8
:10521000CCBE66BF79BEDD3ED86B67BF80E8DA3EA4
:10522000A81668BF6B10D83E3CBF68BF4136D53E5C
:10523000916569BF095AD23EA7096ABFCA7BCF3EB2
:105240007BAB6ABF8B9BCC3E0C4B6BBF53B9C93E4B
:1052500058E86BBF29D5C63E5E836CBF15EFC33ED1
:105260001D1C6DBF1E07C13E93B26DBF4A1DBE3EE1
:10527000BE466EBFA031BB3E9ED86EBF2A44B83E2C
:1052800030686FBFEC54B53E73F56FBFEF63B23E4D
:10529000668070BF3A71AF3E080971BFD47CAC3EE6
:1052A000578F71BFC486A93E521372BF128FA63E9C
:1052B000F89472BFC595A33E471473BFE59AA03E0C
:1052C0003F9173BF789E9D3EDD0B74BF86A09A3ED2
:1052D000228474BF17A1973E0BFA74BF31A0943E8D
:1052E000976D75BFDD9D913EC6DE75BF229A8E3EDD
:1052F000974D76BF07958B3E07BA76BF938E883E53
:10530000172477BFCE86853EC58B77BFC07D823E92
:1053100010F177BFE1E67E3EF85378BFCCCF783E00
:105320007BB478BF51B6723E981279BF7F9A6C3EBB
:105330004E6E79BF667C663E9DC779BF135C603E4A
:10534000841E7ABF97395A3E02737ABF0115543EC4
:1053500016C57ABF60EE4D3EBE147BBFC2C5473E48
:10536000FC617BBF379B413ECDAC7BBFCF6E3B3EEC
:1053700031F57BBF9840353E283B7CBFA2102F3EC5
:10538000B07E7CBFFCDE283EC9BF7CBFB6AB223EF0
:1053900073FE7CBFDE761C3EAC3A7DBF8340163E7A
:1053A00074747DBFB708103ECCAB7DBF86CF093E7D
:1053B000B1E07DBF0295033E24137EBF73B2FA3D78
:1053C00023437EBF7638EE3DB0707EBF2EBCE13DFC
:1053D000C99B7EBFB93DD53D6DC47EBF36BDC83DBE
:1053E0009DEA7EBFC33ABC3D580E7FBF80B6AF3D3D
:1053F0009D2F7FBF8C30A33D6D4E7FBF05A9963D8D
:10540000C76A7FBF0A208A3DAB847FBF742B7B3D78
:10541000189C7FBF6814623D0FB17FBF2FFB483DD2
:105420008FC37FBF07E02F3D98D37FBF2CC3163DAE
:1054300029E17FBFB949FB3C43EC7FBFB00AC93CBF
:10544000E6F47FBFB6C9963C11FB7FBF900E493C86
:10545000C4FE7FBF890FC93B000080BF0000000071
:10546000C4FE7FBF890FC9BB11FB7FBF900E49BC33
:10547000E6F47FBFB6C996BC43EC7FBFB00AC9BC97
:1054800029E17FBFB949FBBC98D37FBF2CC316BDB0
:105490008FC37FBF07E02FBD0FB17FBF2FFB48BD7C
:1054A000189C7FBF681462BDAB847FBF742B7BBD2B
:1054B000C76A7FBF0A208ABD6D4E7FBF05A996BD12
:1054C0009D2F7FBF8C30A3BD580E7FBF80B6AFBD70
:1054D0009DEA7EBFC33ABCBD6DC47EBF36BDC8BDAC
:1054E000C99B7EBFB93DD5BDB0707EBF2EBCE1BDAE
:1054F00023437EBF7638EEBD24137EBF73B2FABD60
:10550000B1E07DBF029503BECCAB7DBF86CF09BEA7
:1055100074747DBFB70810BEAC3A7DBF834016BE21
:1055200073FE7CBFDE761CBEC9BF7CBFB6AB22BE9D
:10553000B07E7CBFFCDE28BE283B7CBFA2102FBE05
:1055400031F57BBF984035BECDAC7BBFCF6E3BBE47
:10555000FC617BBF379B41BEBE147BBFC2C547BE4B
:1055600016C57ABF60EE4DBE02737ABF011554BEF8
:10557000841E7ABF97395ABE9DC779BF135C60BE3F
:105580004E6E79BF667C66BE981279BF7F9A6CBEFC
:105590007BB478BF51B672BEF85378BFCCCF78BE1B
:1055A00010F177BFE1E67EBEC58B77BFC07D82BEBE
:1055B000172477BFCE8685BE07BA76BF938E88BE86
:1055C000974D76BF07958BBEC6DE75BF229A8EBEFD
:1055D000976D75BFDD9D91BE0BFA74BF31A094BE6F
:1055E000228474BF17A197BEDD0B74BF86A09ABE3C
:1055F0003F9173BF789E9DBE471473BFE59AA0BECE
:10560000F89472BFC595A3BE521372BF128FA6BE87
:10561000578F71BFC486A9BE080971BFD47CACBEC8
:10562000668070BF3A71AFBE73F56FBFEF63B2BEF5
:1056300030686FBFEC54B5BE9ED86EBF2A44B8BE6A
:10564000BE466EBFA031BBBE93B26DBF4A1DBEBE8B
:105650001D1C6DBF1E07C1BE5E836CBF15EFC3BEB0
:1056600058E86BBF29D5C6BE0C4B6BBF53B9C9BE3A
:105670007BAB6ABF8B9BCCBEA7096ABFCA7BCFBE80
:10568000916569BF095AD2BE3CBF68BF4136D5BEDD
:10569000A81668BF6B10D8BED86B67BF80E8DABEAB
:1056A000CCBE66BF79BEDDBE880F66BF4F92E0BE3E
:1056B0000B5E65BFFA63E3BE59AA64BF7533E6BEED
:1056C00073F463BFB700E9BE5A3C63BFBBCBEBBE0C
:1056D000108262BF7994EEBE98C561BFEA5AF1BEEE
:1056E000F20661BF071FF4BE214660BFCBE0F6BEE5
:1056F00027835FBF2DA0F9BE05BE5EBF275DFCBE40
:10570000BEF65DBFB217FFBE532D5DBFE4E700BF1D
:10571000C7615CBFB14202BF1A945BBF3D9C03BF2F
:1057200050C45ABF84F404BF6AF259BF824B06BF0B
:105730006A1E59BF36A107BF534858BF9BF508BF23
:10574000267057BFAD480ABFE59556BF6B9A0BBF91
:1057500093B955BFD0EA0CBF31DB54BFDA390EBF65
:10576000C3FA53BF84870FBF491853BFCDD310BFAF
:10577000C63352BFB01E12BF3D4D51BF2A6813BF82
:10578000AF6450BF39B014BF1F7A4FBFD9F615BFF1
:10579000908D4EBF073C17BF029F4DBFC07F18BF03
:1057A00079AE4CBF00C219BFF8BB4BBFC6021BBFCE
:1057B0007FC74ABF0C421CBF12D149BFD17F1DBF5A
:1057C000B3D848BF12BC1EBF65DE47BFCBF61FBFB4
:1057D0002AE246BFF92F21BF03E445BF996722BFE4
:1057E000F5E344BFA99D23BF00E243BF25D224BFF8
:1057F00029DE42BF0A0526BF70D841BF563627BFF3
:10580000DAD040BF056628BF67C73FBF159429BFE0
:105810001BBC3EBF82C02ABFF9AE3DBF4AEB2BBFC7
:1058200003A03CBF69142DBF3B8F3BBFDE3B2EBFA7
:10583000A47C3ABFA5612FBF426839BFBB8530BF8A
:10584000165238BF1DA831BF233A37BFC9C832BF6F
:105850006C2036BFBCE733BFF30435BFF30435BF5C
:10586000BCE733BF6C2036BFC9C832BF233A37BF4D
:105870001DA831BF165238BFBB8530BF426839BF43
:10588000A5612FBFA47C3ABFDE3B2EBF3B8F3BBF41
:1058900069142DBF03A03CBF4AEB2BBFF9AE3DBF3F
:1058A00082C02ABF1BBC3EBF159429BF67C73FBF3C
:1058B000056628BFDAD040BF563627BF70D841BF33
:1058C0000A0526BF29DE42BF25D224BF00E243BF1E
:1058D000A99D23BFF5E344BF996722BF03E445BFF9
:1058E000F92F21BF2AE246BFCBF61FBF65DE47BFB7
:1058F00012BC1EBFB3D848BFD17F1DBF12D149BF54
:105900000C421CBF7FC74ABFC6021BBFF8BB4BBFC0
:1059100000C219BF79AE4CBFC07F18BF029F4DBFF8
:10592000073C17BF908D4EBFD9F615BF1F7A4FBFEA
:1059300039B014BFAF6450BF2A6813BF3D4D51BF8B
:10594000B01E12BFC63352BFCDD310BF491853BFCC
:1059500084870FBFC3FA53BFDA390EBF31DB54BFA0
:10596000D0EA0CBF93B955BF6B9A0BBFE59556BFF4
:10597000AD480ABF267057BF9BF508BF534858BFB4
:1059800036A107BF6A1E59BF824B06BF6AF259BFD4
:1059900084F404BF50C45ABF3D9C03BF1A945BBF3C
:1059A000B14202BFC7615CBFE4E700BF532D5DBFDA
:1059B000B217FFBEBEF65DBF275DFCBE05BE5EBF73
:1059C0002DA0F9BE27835FBFCBE0F6BE214660BFA6
:1059D000071FF4BEF20661BFEA5AF1BE98C561BF67
:1059E0007994EEBE108262BFBBCBEBBE5A3C63BF64
:1059F000B700E9BE73F463BF7533E6BE59AA64BF4E
:105A0000FA63E3BE0B5E65BF4F92E0BE880F66BFD0
:105A100079BEDDBECCBE66BF80E8DABED86B67BF9C
:105A20006B10D8BEA81668BF4136D5BE3CBF68BF54
:105A3000095AD2BE916569BFCA7BCFBEA7096ABFAA
:105A40008B9BCCBE7BAB6ABF53B9C9BE0C4B6BBF43
:105A500029D5C6BE58E86BBF15EFC3BE5E836CBFC9
:105A60001E07C1BE1D1C6DBF4A1DBEBE93B26DBFD9
:105A7000A031BBBEBE466EBF2A44B8BE9ED86EBF24
:105A8000EC54B5BE30686FBFEF63B2BE73F56FBF45
:105A90003A71AFBE668070BFD47CACBE080971BFDE
:105AA000C486A9BE578F71BF128FA6BE521372BF94
:105AB000C595A3BEF89472BFE59AA0BE471473BF04
:105AC000789E9DBE3F9173BF86A09ABEDD0B74BFCA
:105AD00017A197BE228474BF31A094BE0BFA74BF85
