:020000040800F2
:100000007006002031020008390200083B02000897
:100010003D0200083F020008410200080000000005
:100020000000000000000000000000004302000883
:1000300045020008000000004702000849020008CD
:100040004B0200084B0200084B0200084B0200085C
:100050004B0200084B0200084B0200084B0200084C
:100060004B0200084B0200084B0200084B0200083C
:100070004B0200084B0200084B0200084B0200082C
:100080004B0200084B0200084B0200084B0200081C
:100090004B0200084B0200084B0200084B0200080C
:1000A0004B0200084B0200084B0200084B020008FC
:1000B000190C00084B0200084B0200084B02000814
:1000C0004B0200084B0200084B0200084B020008DC
:1000D0004B0200084B0200084B0200084B020008CC
:1000E0004B0200084B0200084B0200084B020008BC
:1000F0004B0200084B0200084B0200084B020008AC
:100100004B0200084B0200084B0200084B0200089B
:100110004B0200084B0200084B0200084B0200088B
:100120004B0200084B0200084B0200084B0200087B
:100130004B02000800000000000000004B02000815
:100140004B0200084B0200084B0200084B0200085B
:100150004B0200084B0200084B0200084B0200084B
:100160004B0200084B0200084B0200084B0200083B
:100170004B0200084B020008000000004B02000880
:100180004B0200084B02000800F002F800F041F8B2
:100190000AA090E8000C82448344AAF10107DA45E2
:1001A00001D100F036F8AFF2090EBAE80F0013F0F3
:1001B000010F18BFFB1A43F001031847D00C0000D1
:1001C000F00C0000103A24BF78C878C1FAD8520762
:1001D00024BF30C830C144BF04680C6070470000C1
:1001E0000023002400250026103A28BF78C1FBD840
:1001F000520728BF30C148BF0B607047642900F028
:100200007F80002070471FB500F03AFE1FBD10B57B
:1002100010BD00F02AF91146FFF7F5FF00F018FEB7
:1002200000F048F903B4FFF7F2FF03BC00F050F907
:100230000948804709480047FEE7FEE7FEE7FEE77A
:10024000FEE7FEE7FEE7FEE7FEE7FEE704480549B6
:10025000054A064B70470000B10B000889010008F1
:100260007000002070060020700200207002002044
:100270000FB41CB5074B06AA7B446946009005984D
:1002800000F0DBF80020694600F0EAF81CBC5DF8DD
:1002900014FB0000E50100002DE9F0410E46044684
:1002A000002020622046E168884730B3252805D029
:1002B000D4E901219047206A401CF2E7E16820461A
:1002C00000278847050018D0A5F14100192802D859
:1002D00020354FF400673246294620462760FFF755
:1002E0008DFF40B1012804D0F61D26F00706083620
:1002F000D8E7361DD6E72846DAE7206ABDE8F08160
:100300002DE9F0410646002410687529314616A5EE
:1003100010D0AFF30080002802DA404213A507E0B6
:1003200031688A0701D512A502E0490704D511A555
:10033000012401E0AFF3008000210A2206F1240726
:1003400009E0B0FBF2FCB0FBF2F302FB1C00303022
:1003500078541846491C0028F3D123462A463046D3
:10036000BDE8F04100F00BB8000000002D000000D7
:100370002B000000200000007047704770472DE9F7
:10038000F0470D4699469246044600F1240801685C
:10039000880604D5E06921F01001216000E0012009
:1003A000A84201DD471B00E00027A1697A1902EB92
:1003B0000900081AA0612078C00602D42046AFF3D5
:1003C0000080002608E0D4E901211AF806009047D1
:1003D000206A401C761C20624E45F4DB2078C00663
:1003E0000AD52046AFF3008006E0D4E90121302091
:1003F0009047206A401C2062381EA7F10107F4DCF8
:1004000007E0D4E9012118F805009047206A401C54
:100410002062281EA5F10105F3DC2046AFF3008021
:100420002078000602D50220BDE8F0870120FBE716
:1004300001694A1C02610878704700B58FB0CDE9A8
:1004400001310021059105497944CDE90310114698
:100450006846FFF721FF0FB000BD0000E5FFFFFF7A
:100460000A6802F8010B0A607047754600F02CF824
:10047000AE4605006946534620F00700854618B091
:1004800020B5FFF7E3FEBDE820404FF000064FF037
:1004900000074FF000084FF0000B21F00701AC46B9
:1004A000ACE8C009ACE8C009ACE8C009ACE8C009D8
:1004B0008D46704710B50446AFF300802046BDE876
:1004C0001040FFF7AFBE000000487047100000204A
:1004D00001491820ABBEFEE726000200704721B19B
:1004E000826842F00102826003E0826822F0010229
:1004F0008260704710B50121080200F02FFA002138
:100500004FF4807000F02AFA10BD0146C86C80B22A
:1005100070470246002013680B400BB1012000E039
:100520000020704730B50246002000235068104C70
:1005300020400D790C6844EA0524204350609068FF
:100540000C4C2040D1E903542C438D682C434D7949
:1005500044EA450420439060D06A20F470000C7D8A
:10056000641EE4B2234340EA0350D06230BD000071
:10057000FFFEFFFCFDF7FFC0F0B504460D4600206E
:100580000021092D11DDE068A5F10A0606EB4607FA
:10059000072606FA07F18843A5F10A0606EB460688
:1005A00003FA06F10843E0600CE0206905EB45071B
:1005B000072606FA07F1884305EB450603FA06F11C
:1005C00008432061072A0FDA606B561E06EB860788
:1005D0001F2606FA07F18843561E06EB860605FA23
:1005E00006F10843606322E00D2A0FDA206BD61F64
:1005F00006EB86071F2606FA07F18843D61F06EB8F
:10060000860605FA06F10843206310E0E06AA2F1CD
:100610000D0606EB86071F2606FA07F18843A2F1AE
:100620000D0606EB860605FA06F10843E062F0BD0A
:10063000816841F080418160704708B51C208DF8C9
:10064000000000208DF8010001208DF802008DF8D7
:100650000300684600F016F908BD10B5FFF7EDFF7E
:1006600010BDF0B50A4600210023002400BF3DE084
:10067000012505FA01F3156805EA03049C4234D10B
:1006800005684F000326BE40B543056015794E004E
:10069000B5400668354305601579012D02D01579FE
:1006A000022D16D185684F000326BE40B5438560F4
:1006B00055794E00B540866835438560456801260A
:1006C0008E40B5434560456896798E40B6B2354355
:1006D0004560C5684F000326BE40B543C560D57967
:1006E0004E00B540C6683543C560491C1029BFD3CC
:1006F000F0BDF0B5002300244D07ED0E02FA05F31E
:10070000CE1000F1200555F826504E07F70E0F26A3
:10071000BE40B543CF1000F1200646F82750CE105A
:1007200000F1200555F8265045EA0304CE1000F1EB
:10073000200545F82640F0BD4FF6FF71016000210D
:10074000017141718171C17170470EB50020ADF822
:100750000000ADF80200642001900020ADF8080010
:100760008DF80A0069464FF0804000F0A1FA01219F
:10077000880700F076FA01221146900700F08EFA01
:100780000EBD000000B589B001A8FFF7D5FF01201C
:10079000019003208DF8080000208DF80B0001A9BE
:1007A0001148FFF75EFFFFF7A5FE002007900390BA
:1007B00001208DF8110000200690059001208DF891
:1007C000200000208DF8100003A90848FFF7AAFEBA
:1007D00001210648FFF783FE062301220A21034870
:1007E000FFF7CAFE09B000BD00080240002001402A
:1007F00010B500F0ADF900F0C1F94FF4E13000F0B0
:1008000005F8FFF7BFFFFFF7A0FF10BD10B586B0DA
:100810000446C020049002208DF8140000208DF8BA
:10082000160001208DF8170003208DF8150004A98B
:100830001248FFF716FF072206211048FFF759FF5D
:10084000072211460D48FFF754FF00940020ADF831
:100850000C000C20ADF80A000020ADF80800ADF83F
:100860000600ADF804006946054800F085FA01214C
:10087000034800F075FA06B010BD00000004024005
:100880000010014070B5002100230F22C4781CB372
:10089000174C246804F4E064C4F5E064C4F3072151
:1008A000C1F10404E3B20A4144789C40E1B2847887
:1008B000144021430C07210E0E4C05786155047835
:1008C00004F01F050124AC4005786D11AD0005F161
:1008D000E025C5F8004109E0047804F01F05012473
:1008E000AC40054D0678761145F8264070BD0000F5
:1008F0000CED00E000E400E080E100E029B1064AF0
:1009000012680243044B1A6004E0034A12688243EF
:10091000014B1A60704700003038024029B1064A86
:1009200012680243044B1A6004E0034A12688243CF
:10093000014B1A60704700004038024029B1064A56
:1009400012680243044B1A6004E0034A12688243AF
:10095000014B1A60704700004438024029B1064A32
:1009600012680243044B1A6004E0034A126882438F
:10097000014B1A607047000024380240F0B5002196
:1009800000220024022500260223324F3F6807F090
:100990000C0121B1042905D0082937D105E02E4FDB
:1009A000076036E02D4F076033E02A4F3F1F3F6856
:1009B000C7F38056274F3F1F3F6807F03F036EB1D4
:1009C000264FB7FBF3F7DFF88CC0ACF1040CDCF872
:1009D00000C0CCF3881C07FB0CF40CE01E4FB7FBE7
:1009E000F3F7DFF870C0ACF1040CDCF800C0CCF316
:1009F000881C07FB0CF4174F3F1F3F68C7F30147E4
:100A00007F1C7D00B4FBF5F7076002E0124F076022
:100A100000BF00BF0F4F3F6807F0F0010909104FFA
:100A20007A5C0768D74047600A4F3F6807F4E05197
:100A3000890A0B4F7A5C4768D7408760054F3F684B
:100A400007F46041490B064F7A5C4768D740C7609E
:100A5000F0BD0000083802400024F40000127A00C3
:100A6000000000200CB50020019000903448006880
:100A700040F480303249086000BF3148006800F41B
:100A8000003000900198401C0190009818B901981E
:100A9000B0F5A06FF1D12A48006800F4003010B121
:100AA0000120009001E0002000900098012846D12C
:100AB00023484030006840F08050214940310860B0
:100AC0002048006840F480401E4908601C480830F7
:100AD00000681B49083108600846006840F400407F
:100AE00008600846006840F4A05008601648091FD6
:100AF0000860081F006840F08070091F086000BF90
:100B00000F48006800F000700028F9D040F205603E
:100B10000E4908600A480830006820F003000849C0
:100B2000083108600846006840F00200086000BF15
:100B300003480830006800F00C000828F8D10CBD0C
:100B4000003802400070004010544007003C024052
:100B500010B501210220FFF7D1FE01211020FFF77F
:100B6000EDFE01210846FFF7D9FE01210802FFF73B
:100B7000E5FE01210420FFF7C1FE10BD1CB50120D8
:100B80008DF8040000208DF806000220009001205E
:100B90008DF8070003208DF8050069460348FFF72C
:100BA00060FD00200149143108601CBD00040240B2
:100BB00010B51548006840F47000134908601348E8
:100BC000006840F001001149086000200F49083119
:100BD00008600E4800680E4908400C4908600D483E
:100BE000091D0860081F006820F48020091F0860A4
:100BF000002006490C310860FFF734FF4FF0006019
:100C000001498039086010BD88ED00E000380240DD
:100C1000FFFFF6FE103000243EB50121880700F0EA
:100C20002CF8A8B10121880700F018F809480068DD
:100C300080F00200074908600A2000F00FF904461E
:100C4000224605A16846FFF713FB684600F072F8DC
:100C50003EBD00001404024025640A00CA4302821B
:100C6000704721B1028842F00102028004E002884C
:100C70004FF6FE731A400280704730B502460020DE
:100C800000230024158A05EA0103958905EA010479
:100C900013B10CB1012000E0002030BD1AB18389EE
:100CA0000B43838102E083898B438381704700007B
:100CB00000220288184B98420ED0184B98420BD055
:100CC000B0F1804F08D0164B984205D0154B984292
:100CD00002D0154B984204D14FF68F731A404B88BF
:100CE0001A43124B984207D0114B984204D04FF64A
:100CF000FF431A400B891A4302804B68C3620B887A
:100D00000385054B984202D0044B984201D18B7A5F
:100D100003860123838270470000014000040140E4
:100D20000004004000080040000C0040001000409B
:100D30000014004010B504460CE000BF07480088CE
:100D400000F040000028F9D02178044800F07CF839
:100D500014F8010B20780028EFD110BD00100140DD
:100D600021B1828942F40052828104E082894DF6E9
:100D7000FF731A40828170472DE9FF4705460E46F2
:100D80000024A14600BFA0462C8A24F44054F088D9
:100D900004432C82AC8941F20C608443B0883189D1
:100DA0000843718908430443AC81AC8A24F440743D
:100DB000B0890443AC826846FFF7E0FD20488542D5
:100DC00002D02048854202D1DDF80C9001E0DDF828
:100DD0000890A88900F4004040B109EBC90000EB7D
:100DE000091031684900B0FBF1F707E009EBC900D1
:100DF00000EB091031688900B0FBF1F76420B7FB04
:100E0000F0F004012009642101FB1078A88900F4A6
:100E1000004040B1322000EBC800B0FBF1F000F020
:100E20000700044308E0322000EB08106421B0FB07
:100E3000F1F000F00F0004432C81BDE8FF870000B3
:100E40000010014000140140C1F308028280704785
:100E5000FFF7CEFCFFF701FC00BFFEE710B504462C
:100E60000648FFF7E5FB00BF02210448FFF751FBEE
:100E70000028F9D00148FFF748FB10BD00200140D1
:100E80004FF04070E1EE100A70470000AC0E000811
:100E90000000002010000000C4010008BC0E000883
:100EA0001000002060060000E001000800000000C3
:0C0EB00001020304010203040607080904
:0400000508000231BC
:00000001FF
